{
  "contractName": "Dex",
  "abi": [
    {
      "anonymous": false,
      "inputs": [
        {
          "indexed": true,
          "internalType": "address",
          "name": "previousOwner",
          "type": "address"
        },
        {
          "indexed": true,
          "internalType": "address",
          "name": "newOwner",
          "type": "address"
        }
      ],
      "name": "OwnershipTransferred",
      "type": "event"
    },
    {
      "inputs": [
        {
          "internalType": "bytes32",
          "name": "_ticker",
          "type": "bytes32"
        },
        {
          "internalType": "address",
          "name": "_tokenAddress",
          "type": "address"
        }
      ],
      "name": "addToken",
      "outputs": [],
      "stateMutability": "nonpayable",
      "type": "function"
    },
    {
      "inputs": [
        {
          "internalType": "address",
          "name": "",
          "type": "address"
        },
        {
          "internalType": "bytes32",
          "name": "",
          "type": "bytes32"
        }
      ],
      "name": "balances",
      "outputs": [
        {
          "internalType": "uint256",
          "name": "",
          "type": "uint256"
        }
      ],
      "stateMutability": "view",
      "type": "function"
    },
    {
      "inputs": [
        {
          "internalType": "uint256",
          "name": "_amount",
          "type": "uint256"
        },
        {
          "internalType": "bytes32",
          "name": "_ticker",
          "type": "bytes32"
        }
      ],
      "name": "depositToken",
      "outputs": [],
      "stateMutability": "nonpayable",
      "type": "function"
    },
    {
      "inputs": [],
      "name": "depositWei",
      "outputs": [],
      "stateMutability": "payable",
      "type": "function"
    },
    {
      "inputs": [
        {
          "internalType": "bytes32",
          "name": "_ticker",
          "type": "bytes32"
        }
      ],
      "name": "getTokenBalance",
      "outputs": [
        {
          "internalType": "uint256",
          "name": "",
          "type": "uint256"
        }
      ],
      "stateMutability": "view",
      "type": "function"
    },
    {
      "inputs": [],
      "name": "getWeiBalance",
      "outputs": [
        {
          "internalType": "uint256",
          "name": "",
          "type": "uint256"
        }
      ],
      "stateMutability": "view",
      "type": "function"
    },
    {
      "inputs": [
        {
          "internalType": "bytes32",
          "name": "",
          "type": "bytes32"
        },
        {
          "internalType": "uint256",
          "name": "",
          "type": "uint256"
        },
        {
          "internalType": "uint256",
          "name": "",
          "type": "uint256"
        }
      ],
      "name": "orderBook",
      "outputs": [
        {
          "internalType": "uint256",
          "name": "id",
          "type": "uint256"
        },
        {
          "internalType": "address",
          "name": "trader",
          "type": "address"
        },
        {
          "internalType": "enum Dex.Side",
          "name": "side",
          "type": "uint8"
        },
        {
          "internalType": "bytes32",
          "name": "ticker",
          "type": "bytes32"
        },
        {
          "internalType": "uint256",
          "name": "amount",
          "type": "uint256"
        },
        {
          "internalType": "uint256",
          "name": "price",
          "type": "uint256"
        }
      ],
      "stateMutability": "view",
      "type": "function"
    },
    {
      "inputs": [],
      "name": "owner",
      "outputs": [
        {
          "internalType": "address",
          "name": "",
          "type": "address"
        }
      ],
      "stateMutability": "view",
      "type": "function"
    },
    {
      "inputs": [],
      "name": "renounceOwnership",
      "outputs": [],
      "stateMutability": "nonpayable",
      "type": "function"
    },
    {
      "inputs": [
        {
          "internalType": "uint256",
          "name": "",
          "type": "uint256"
        }
      ],
      "name": "tokenList",
      "outputs": [
        {
          "internalType": "bytes32",
          "name": "",
          "type": "bytes32"
        }
      ],
      "stateMutability": "view",
      "type": "function"
    },
    {
      "inputs": [
        {
          "internalType": "bytes32",
          "name": "",
          "type": "bytes32"
        }
      ],
      "name": "tokenMapping",
      "outputs": [
        {
          "internalType": "bytes32",
          "name": "ticker",
          "type": "bytes32"
        },
        {
          "internalType": "address",
          "name": "tokenAddress",
          "type": "address"
        }
      ],
      "stateMutability": "view",
      "type": "function"
    },
    {
      "inputs": [
        {
          "internalType": "address",
          "name": "newOwner",
          "type": "address"
        }
      ],
      "name": "transferOwnership",
      "outputs": [],
      "stateMutability": "nonpayable",
      "type": "function"
    },
    {
      "inputs": [
        {
          "internalType": "address",
          "name": "",
          "type": "address"
        }
      ],
      "name": "weiBalances",
      "outputs": [
        {
          "internalType": "uint256",
          "name": "",
          "type": "uint256"
        }
      ],
      "stateMutability": "view",
      "type": "function"
    },
    {
      "inputs": [
        {
          "internalType": "uint256",
          "name": "_amount",
          "type": "uint256"
        },
        {
          "internalType": "bytes32",
          "name": "_ticker",
          "type": "bytes32"
        }
      ],
      "name": "withdraw",
      "outputs": [],
      "stateMutability": "nonpayable",
      "type": "function"
    },
    {
      "inputs": [
        {
          "internalType": "bytes32",
          "name": "ticker",
          "type": "bytes32"
        },
        {
          "internalType": "enum Dex.Side",
          "name": "side",
          "type": "uint8"
        }
      ],
      "name": "getOrderBook",
      "outputs": [
        {
          "components": [
            {
              "internalType": "uint256",
              "name": "id",
              "type": "uint256"
            },
            {
              "internalType": "address",
              "name": "trader",
              "type": "address"
            },
            {
              "internalType": "enum Dex.Side",
              "name": "side",
              "type": "uint8"
            },
            {
              "internalType": "bytes32",
              "name": "ticker",
              "type": "bytes32"
            },
            {
              "internalType": "uint256",
              "name": "amount",
              "type": "uint256"
            },
            {
              "internalType": "uint256",
              "name": "price",
              "type": "uint256"
            }
          ],
          "internalType": "struct Dex.Order[]",
          "name": "",
          "type": "tuple[]"
        }
      ],
      "stateMutability": "view",
      "type": "function"
    },
    {
      "inputs": [
        {
          "internalType": "enum Dex.Side",
          "name": "_side",
          "type": "uint8"
        },
        {
          "internalType": "bytes32",
          "name": "_ticker",
          "type": "bytes32"
        },
        {
          "internalType": "uint256",
          "name": "_amount",
          "type": "uint256"
        }
      ],
      "name": "createMarketOrder",
      "outputs": [],
      "stateMutability": "nonpayable",
      "type": "function"
    },
    {
      "inputs": [
        {
          "internalType": "enum Dex.Side",
          "name": "_side",
          "type": "uint8"
        },
        {
          "internalType": "bytes32",
          "name": "_ticker",
          "type": "bytes32"
        },
        {
          "internalType": "uint256",
          "name": "_amount",
          "type": "uint256"
        },
        {
          "internalType": "uint256",
          "name": "_price",
          "type": "uint256"
        }
      ],
      "name": "createLimitOrder",
      "outputs": [],
      "stateMutability": "nonpayable",
      "type": "function"
    }
  ],
  "bytecode": "0x608060405260006005553480156200001657600080fd5b50600062000029620000cd60201b60201c565b9050806000806101000a81548173ffffffffffffffffffffffffffffffffffffffff021916908373ffffffffffffffffffffffffffffffffffffffff1602179055508073ffffffffffffffffffffffffffffffffffffffff16600073ffffffffffffffffffffffffffffffffffffffff167f8be0079c531659141344cd1fd0a4f28419497f9722a3daafe3b4186f6b6457e060405160405180910390a350620000d5565b600033905090565b613a8980620000e56000396000f3fe6080604052600436106100fe5760003560e01c80638da5cb5b11610095578063a8d2021a11610064578063a8d2021a1461033e578063b63ed40514610367578063ba58ea6814610392578063c1612c44146103cf578063f2fde38b146103f8576100fe565b80638da5cb5b146102845780639776aacf146102af57806399ec2f1c146102d85780639ead722214610301576100fe565b80636ef9e145116100d15780636ef9e145146101ca5780636f3b62f914610207578063715018a61461023057806388db6ac614610247576100fe565b80630bb431b61461010357806315488b88146101455780631f14df691461014f578063667cb4ba1461018c575b600080fd5b34801561010f57600080fd5b5061012a6004803603810190610125919061301f565b610421565b60405161013c969594939291906136fc565b60405180910390f35b61014d6104b4565b005b34801561015b57600080fd5b5061017660048036038101906101719190612f19565b61050c565b60405161018391906136e1565b60405180910390f35b34801561019857600080fd5b506101b360048036038101906101ae9190612f7e565b610531565b6040516101c19291906135d8565b60405180910390f35b3480156101d657600080fd5b506101f160048036038101906101ec9190612ef0565b610575565b6040516101fe91906136e1565b60405180910390f35b34801561021357600080fd5b5061022e600480360381019061022991906130bd565b61058d565b005b34801561023c57600080fd5b506102456113e4565b005b34801561025357600080fd5b5061026e60048036038101906102699190612f7e565b61151e565b60405161027b91906136e1565b60405180910390f35b34801561029057600080fd5b50610299611578565b6040516102a69190613520565b60405180910390f35b3480156102bb57600080fd5b506102d660048036038101906102d19190612fa7565b6115a1565b005b3480156102e457600080fd5b506102ff60048036038101906102fa919061306e565b6116dc565b005b34801561030d57600080fd5b5061032860048036038101906103239190613120565b612667565b60405161033591906135bd565b60405180910390f35b34801561034a57600080fd5b5061036560048036038101906103609190613149565b61268b565b005b34801561037357600080fd5b5061037c6128f5565b60405161038991906136e1565b60405180910390f35b34801561039e57600080fd5b506103b960048036038101906103b49190612fe3565b61293c565b6040516103c6919061359b565b60405180910390f35b3480156103db57600080fd5b506103f660048036038101906103f19190613149565b612afd565b005b34801561040457600080fd5b5061041f600480360381019061041a9190612ef0565b612cd6565b005b6006602052826000526040600020602052816000526040600020818154811061044957600080fd5b906000526020600020906005020160009250925050508060000154908060010160009054906101000a900473ffffffffffffffffffffffffffffffffffffffff16908060010160149054906101000a900460ff16908060020154908060030154908060040154905086565b34600460003373ffffffffffffffffffffffffffffffffffffffff1673ffffffffffffffffffffffffffffffffffffffff168152602001908152602001600020600082825461050391906137a7565b92505081905550565b6003602052816000526040600020602052806000526040600020600091509150505481565b60026020528060005260406000206000915090508060000154908060010160009054906101000a900473ffffffffffffffffffffffffffffffffffffffff16905082565b60046020528060005260406000206000915090505481565b600060018111156105c7577f4e487b7100000000000000000000000000000000000000000000000000000000600052602160045260246000fd5b846001811115610600577f4e487b7100000000000000000000000000000000000000000000000000000000600052602160045260246000fd5b141561065e57808261061291906137fd565b600460003373ffffffffffffffffffffffffffffffffffffffff1673ffffffffffffffffffffffffffffffffffffffff16815260200190815260200160002054101561065d57600080fd5b5b600180811115610697577f4e487b7100000000000000000000000000000000000000000000000000000000600052602160045260246000fd5b8460018111156106d0577f4e487b7100000000000000000000000000000000000000000000000000000000600052602160045260246000fd5b14156107345781600360003373ffffffffffffffffffffffffffffffffffffffff1673ffffffffffffffffffffffffffffffffffffffff168152602001908152602001600020600085815260200190815260200160002054101561073357600080fd5b5b6000600660008581526020019081526020016000206000866001811115610784577f4e487b7100000000000000000000000000000000000000000000000000000000600052602160045260246000fd5b81526020019081526020016000209050806040518060c0016040528060055481526020013373ffffffffffffffffffffffffffffffffffffffff1681526020018760018111156107fd577f4e487b7100000000000000000000000000000000000000000000000000000000600052602160045260246000fd5b81526020018681526020018581526020018481525090806001815401808255809150506001900390600052602060002090600502016000909190919091506000820151816000015560208201518160010160006101000a81548173ffffffffffffffffffffffffffffffffffffffff021916908373ffffffffffffffffffffffffffffffffffffffff16021790555060408201518160010160146101000a81548160ff021916908360018111156108dd577f4e487b7100000000000000000000000000000000000000000000000000000000600052602160045260246000fd5b0217905550606082015181600201556080820151816003015560a082015181600401555050600080828054905011610916576000610928565b600182805490506109279190613857565b5b905060006001811115610964577f4e487b7100000000000000000000000000000000000000000000000000000000600052602160045260246000fd5b86600181111561099d577f4e487b7100000000000000000000000000000000000000000000000000000000600052602160045260246000fd5b1415610e79575b6000811115610e74578181815481106109e6577f4e487b7100000000000000000000000000000000000000000000000000000000600052603260045260246000fd5b90600052602060002090600502016004015482600183610a069190613857565b81548110610a3d577f4e487b7100000000000000000000000000000000000000000000000000000000600052603260045260246000fd5b9060005260206000209060050201600401541115610a5a57610e74565b600082600183610a6a9190613857565b81548110610aa1577f4e487b7100000000000000000000000000000000000000000000000000000000600052603260045260246000fd5b90600052602060002090600502016040518060c0016040529081600082015481526020016001820160009054906101000a900473ffffffffffffffffffffffffffffffffffffffff1673ffffffffffffffffffffffffffffffffffffffff1673ffffffffffffffffffffffffffffffffffffffff1681526020016001820160149054906101000a900460ff166001811115610b65577f4e487b7100000000000000000000000000000000000000000000000000000000600052602160045260246000fd5b6001811115610b9d577f4e487b7100000000000000000000000000000000000000000000000000000000600052602160045260246000fd5b815260200160028201548152602001600382015481526020016004820154815250509050828281548110610bfa577f4e487b7100000000000000000000000000000000000000000000000000000000600052603260045260246000fd5b906000526020600020906005020183600184610c169190613857565b81548110610c4d577f4e487b7100000000000000000000000000000000000000000000000000000000600052603260045260246000fd5b9060005260206000209060050201600082015481600001556001820160009054906101000a900473ffffffffffffffffffffffffffffffffffffffff168160010160006101000a81548173ffffffffffffffffffffffffffffffffffffffff021916908373ffffffffffffffffffffffffffffffffffffffff1602179055506001820160149054906101000a900460ff168160010160146101000a81548160ff02191690836001811115610d2a577f4e487b7100000000000000000000000000000000000000000000000000000000600052602160045260246000fd5b021790555060028201548160020155600382015481600301556004820154816004015590505080838381548110610d8a577f4e487b7100000000000000000000000000000000000000000000000000000000600052603260045260246000fd5b90600052602060002090600502016000820151816000015560208201518160010160006101000a81548173ffffffffffffffffffffffffffffffffffffffff021916908373ffffffffffffffffffffffffffffffffffffffff16021790555060408201518160010160146101000a81548160ff02191690836001811115610e3a577f4e487b7100000000000000000000000000000000000000000000000000000000600052602160045260246000fd5b0217905550606082015181600201556080820151816003015560a082015181600401559050508180610e6b90613902565b925050506109a4565b6113c4565b600180811115610eb2577f4e487b7100000000000000000000000000000000000000000000000000000000600052602160045260246000fd5b866001811115610eeb577f4e487b7100000000000000000000000000000000000000000000000000000000600052602160045260246000fd5b14156113c3575b60008111156113c257818181548110610f34577f4e487b7100000000000000000000000000000000000000000000000000000000600052603260045260246000fd5b90600052602060002090600502016004015482600183610f549190613857565b81548110610f8b577f4e487b7100000000000000000000000000000000000000000000000000000000600052603260045260246000fd5b9060005260206000209060050201600401541015610fa8576113c2565b600082600183610fb89190613857565b81548110610fef577f4e487b7100000000000000000000000000000000000000000000000000000000600052603260045260246000fd5b90600052602060002090600502016040518060c0016040529081600082015481526020016001820160009054906101000a900473ffffffffffffffffffffffffffffffffffffffff1673ffffffffffffffffffffffffffffffffffffffff1673ffffffffffffffffffffffffffffffffffffffff1681526020016001820160149054906101000a900460ff1660018111156110b3577f4e487b7100000000000000000000000000000000000000000000000000000000600052602160045260246000fd5b60018111156110eb577f4e487b7100000000000000000000000000000000000000000000000000000000600052602160045260246000fd5b815260200160028201548152602001600382015481526020016004820154815250509050828281548110611148577f4e487b7100000000000000000000000000000000000000000000000000000000600052603260045260246000fd5b9060005260206000209060050201836001846111649190613857565b8154811061119b577f4e487b7100000000000000000000000000000000000000000000000000000000600052603260045260246000fd5b9060005260206000209060050201600082015481600001556001820160009054906101000a900473ffffffffffffffffffffffffffffffffffffffff168160010160006101000a81548173ffffffffffffffffffffffffffffffffffffffff021916908373ffffffffffffffffffffffffffffffffffffffff1602179055506001820160149054906101000a900460ff168160010160146101000a81548160ff02191690836001811115611278577f4e487b7100000000000000000000000000000000000000000000000000000000600052602160045260246000fd5b0217905550600282015481600201556003820154816003015560048201548160040155905050808383815481106112d8577f4e487b7100000000000000000000000000000000000000000000000000000000600052603260045260246000fd5b90600052602060002090600502016000820151816000015560208201518160010160006101000a81548173ffffffffffffffffffffffffffffffffffffffff021916908373ffffffffffffffffffffffffffffffffffffffff16021790555060408201518160010160146101000a81548160ff02191690836001811115611388577f4e487b7100000000000000000000000000000000000000000000000000000000600052602160045260246000fd5b0217905550606082015181600201556080820151816003015560a0820151816004015590505081806113b990613902565b92505050610ef2565b5b5b600560008154809291906113d79061392c565b9190505550505050505050565b6113ec612e7f565b73ffffffffffffffffffffffffffffffffffffffff1661140a611578565b73ffffffffffffffffffffffffffffffffffffffff1614611460576040517f08c379a000000000000000000000000000000000000000000000000000000000815260040161145790613661565b60405180910390fd5b600073ffffffffffffffffffffffffffffffffffffffff1660008054906101000a900473ffffffffffffffffffffffffffffffffffffffff1673ffffffffffffffffffffffffffffffffffffffff167f8be0079c531659141344cd1fd0a4f28419497f9722a3daafe3b4186f6b6457e060405160405180910390a360008060006101000a81548173ffffffffffffffffffffffffffffffffffffffff021916908373ffffffffffffffffffffffffffffffffffffffff160217905550565b6000600360003373ffffffffffffffffffffffffffffffffffffffff1673ffffffffffffffffffffffffffffffffffffffff1681526020019081526020016000206000838152602001908152602001600020549050919050565b60008060009054906101000a900473ffffffffffffffffffffffffffffffffffffffff16905090565b6115a9612e7f565b73ffffffffffffffffffffffffffffffffffffffff166115c7611578565b73ffffffffffffffffffffffffffffffffffffffff161461161d576040517f08c379a000000000000000000000000000000000000000000000000000000000815260040161161490613661565b60405180910390fd5b60405180604001604052808381526020018273ffffffffffffffffffffffffffffffffffffffff16815250600260008481526020019081526020016000206000820151816000015560208201518160010160006101000a81548173ffffffffffffffffffffffffffffffffffffffff021916908373ffffffffffffffffffffffffffffffffffffffff16021790555090505060018290806001815401808255809150506001900390600052602060002001600090919091909150555050565b600180811115611715577f4e487b7100000000000000000000000000000000000000000000000000000000600052602160045260246000fd5b83600181111561174e577f4e487b7100000000000000000000000000000000000000000000000000000000600052602160045260246000fd5b14156117e85780600360003373ffffffffffffffffffffffffffffffffffffffff1673ffffffffffffffffffffffffffffffffffffffff16815260200190815260200160002060008481526020019081526020016000205410156117e7576040517f08c379a00000000000000000000000000000000000000000000000000000000081526004016117de90613621565b60405180910390fd5b5b6000806001811115611823577f4e487b7100000000000000000000000000000000000000000000000000000000600052602160045260246000fd5b84600181111561185c577f4e487b7100000000000000000000000000000000000000000000000000000000600052602160045260246000fd5b141561186b5760019050611870565b600090505b6000600660008581526020019081526020016000206000838152602001908152602001600020905060008060005b8380549050811080156118b057508583105b1561238a57858482815481106118ef577f4e487b7100000000000000000000000000000000000000000000000000000000600052603260045260246000fd5b9060005260206000209060050201600301548461190c91906137a7565b116119635783818154811061194a577f4e487b7100000000000000000000000000000000000000000000000000000000600052603260045260246000fd5b9060005260206000209060050201600301549150611a1a565b8584828154811061199d577f4e487b7100000000000000000000000000000000000000000000000000000000600052603260045260246000fd5b906000526020600020906005020160030154846119ba91906137a7565b1115611a1957828482815481106119fa577f4e487b7100000000000000000000000000000000000000000000000000000000600052603260045260246000fd5b906000526020600020906005020160030154611a169190613857565b91505b5b60006001811115611a54577f4e487b7100000000000000000000000000000000000000000000000000000000600052602160045260246000fd5b886001811115611a8d577f4e487b7100000000000000000000000000000000000000000000000000000000600052602160045260246000fd5b1415611e6757838181548110611acc577f4e487b7100000000000000000000000000000000000000000000000000000000600052603260045260246000fd5b90600052602060002090600502016004015482611ae991906137fd565b600460003373ffffffffffffffffffffffffffffffffffffffff1673ffffffffffffffffffffffffffffffffffffffff168152602001908152602001600020541015611b6a576040517f08c379a0000000000000000000000000000000000000000000000000000000008152600401611b6190613681565b60405180910390fd5b838181548110611ba3577f4e487b7100000000000000000000000000000000000000000000000000000000600052603260045260246000fd5b90600052602060002090600502016004015482611bc091906137fd565b600460003373ffffffffffffffffffffffffffffffffffffffff1673ffffffffffffffffffffffffffffffffffffffff1681526020019081526020016000206000828254611c0e9190613857565b92505081905550838181548110611c4e577f4e487b7100000000000000000000000000000000000000000000000000000000600052603260045260246000fd5b90600052602060002090600502016004015482611c6b91906137fd565b60046000868481548110611ca8577f4e487b7100000000000000000000000000000000000000000000000000000000600052603260045260246000fd5b906000526020600020906005020160010160009054906101000a900473ffffffffffffffffffffffffffffffffffffffff1673ffffffffffffffffffffffffffffffffffffffff1673ffffffffffffffffffffffffffffffffffffffff1681526020019081526020016000206000828254611d2391906137a7565b9250508190555081600360003373ffffffffffffffffffffffffffffffffffffffff1673ffffffffffffffffffffffffffffffffffffffff16815260200190815260200160002060008981526020019081526020016000206000828254611d8a91906137a7565b925050819055508160036000868481548110611dcf577f4e487b7100000000000000000000000000000000000000000000000000000000600052603260045260246000fd5b906000526020600020906005020160010160009054906101000a900473ffffffffffffffffffffffffffffffffffffffff1673ffffffffffffffffffffffffffffffffffffffff1673ffffffffffffffffffffffffffffffffffffffff16815260200190815260200160002060008981526020019081526020016000206000828254611e5b9190613857565b9250508190555061231a565b600180811115611ea0577f4e487b7100000000000000000000000000000000000000000000000000000000600052602160045260246000fd5b886001811115611ed9577f4e487b7100000000000000000000000000000000000000000000000000000000600052602160045260246000fd5b141561231957838181548110611f18577f4e487b7100000000000000000000000000000000000000000000000000000000600052603260045260246000fd5b90600052602060002090600502016004015482611f3591906137fd565b60046000868481548110611f72577f4e487b7100000000000000000000000000000000000000000000000000000000600052603260045260246000fd5b906000526020600020906005020160010160009054906101000a900473ffffffffffffffffffffffffffffffffffffffff1673ffffffffffffffffffffffffffffffffffffffff1673ffffffffffffffffffffffffffffffffffffffff168152602001908152602001600020541015612020576040517f08c379a000000000000000000000000000000000000000000000000000000000815260040161201790613641565b60405180910390fd5b838181548110612059577f4e487b7100000000000000000000000000000000000000000000000000000000600052603260045260246000fd5b9060005260206000209060050201600401548261207691906137fd565b600460003373ffffffffffffffffffffffffffffffffffffffff1673ffffffffffffffffffffffffffffffffffffffff16815260200190815260200160002060008282546120c491906137a7565b92505081905550838181548110612104577f4e487b7100000000000000000000000000000000000000000000000000000000600052603260045260246000fd5b9060005260206000209060050201600401548261212191906137fd565b6004600086848154811061215e577f4e487b7100000000000000000000000000000000000000000000000000000000600052603260045260246000fd5b906000526020600020906005020160010160009054906101000a900473ffffffffffffffffffffffffffffffffffffffff1673ffffffffffffffffffffffffffffffffffffffff1673ffffffffffffffffffffffffffffffffffffffff16815260200190815260200160002060008282546121d99190613857565b9250508190555081600360003373ffffffffffffffffffffffffffffffffffffffff1673ffffffffffffffffffffffffffffffffffffffff168152602001908152602001600020600089815260200190815260200160002060008282546122409190613857565b925050819055508160036000868481548110612285577f4e487b7100000000000000000000000000000000000000000000000000000000600052603260045260246000fd5b906000526020600020906005020160010160009054906101000a900473ffffffffffffffffffffffffffffffffffffffff1673ffffffffffffffffffffffffffffffffffffffff1673ffffffffffffffffffffffffffffffffffffffff1681526020019081526020016000206000898152602001908152602001600020600082825461231191906137a7565b925050819055505b5b818361232691906137a7565b925081848281548110612362577f4e487b7100000000000000000000000000000000000000000000000000000000600052603260045260246000fd5b90600052602060002090600502016003018190555080806123829061392c565b91505061189e565b505b600083805490501180156123eb57506000836000815481106123d7577f4e487b7100000000000000000000000000000000000000000000000000000000600052603260045260246000fd5b906000526020600020906005020160030154145b1561265e5760005b600184805490506124049190613857565b8110156125ad578360018261241991906137a7565b81548110612450577f4e487b7100000000000000000000000000000000000000000000000000000000600052603260045260246000fd5b9060005260206000209060050201848281548110612497577f4e487b7100000000000000000000000000000000000000000000000000000000600052603260045260246000fd5b9060005260206000209060050201600082015481600001556001820160009054906101000a900473ffffffffffffffffffffffffffffffffffffffff168160010160006101000a81548173ffffffffffffffffffffffffffffffffffffffff021916908373ffffffffffffffffffffffffffffffffffffffff1602179055506001820160149054906101000a900460ff168160010160146101000a81548160ff02191690836001811115612574577f4e487b7100000000000000000000000000000000000000000000000000000000600052602160045260246000fd5b021790555060028201548160020155600382015481600301556004820154816004015590505080806125a59061392c565b9150506123f3565b50828054806125e5577f4e487b7100000000000000000000000000000000000000000000000000000000600052603160045260246000fd5b60019003818190600052602060002090600502016000808201600090556001820160006101000a81549073ffffffffffffffffffffffffffffffffffffffff02191690556001820160146101000a81549060ff02191690556002820160009055600382016000905560048201600090555050905561238c565b50505050505050565b6001818154811061267757600080fd5b906000526020600020016000915090505481565b80600073ffffffffffffffffffffffffffffffffffffffff166002600083815260200190815260200160002060010160009054906101000a900473ffffffffffffffffffffffffffffffffffffffff1673ffffffffffffffffffffffffffffffffffffffff161415612732576040517f08c379a0000000000000000000000000000000000000000000000000000000008152600401612729906136c1565b60405180910390fd5b82600360003373ffffffffffffffffffffffffffffffffffffffff1673ffffffffffffffffffffffffffffffffffffffff16815260200190815260200160002060008481526020019081526020016000205410156127c5576040517f08c379a00000000000000000000000000000000000000000000000000000000081526004016127bc906136a1565b60405180910390fd5b82600360003373ffffffffffffffffffffffffffffffffffffffff1673ffffffffffffffffffffffffffffffffffffffff168152602001908152602001600020600084815260200190815260200160002060008282546128259190613857565b925050819055506002600083815260200190815260200160002060010160009054906101000a900473ffffffffffffffffffffffffffffffffffffffff1673ffffffffffffffffffffffffffffffffffffffff1663a9059cbb33856040518363ffffffff1660e01b815260040161289d929190613572565b602060405180830381600087803b1580156128b757600080fd5b505af11580156128cb573d6000803e3d6000fd5b505050506040513d601f19601f820116820180604052508101906128ef9190612f55565b50505050565b6000600460003373ffffffffffffffffffffffffffffffffffffffff1673ffffffffffffffffffffffffffffffffffffffff16815260200190815260200160002054905090565b606060066000848152602001908152602001600020600083600181111561298c577f4e487b7100000000000000000000000000000000000000000000000000000000600052602160045260246000fd5b8152602001908152602001600020805480602002602001604051908101604052809291908181526020016000905b82821015612af157838290600052602060002090600502016040518060c0016040529081600082015481526020016001820160009054906101000a900473ffffffffffffffffffffffffffffffffffffffff1673ffffffffffffffffffffffffffffffffffffffff1673ffffffffffffffffffffffffffffffffffffffff1681526020016001820160149054906101000a900460ff166001811115612a88577f4e487b7100000000000000000000000000000000000000000000000000000000600052602160045260246000fd5b6001811115612ac0577f4e487b7100000000000000000000000000000000000000000000000000000000600052602160045260246000fd5b81526020016002820154815260200160038201548152602001600482015481525050815260200190600101906129ba565b50505050905092915050565b80600073ffffffffffffffffffffffffffffffffffffffff166002600083815260200190815260200160002060010160009054906101000a900473ffffffffffffffffffffffffffffffffffffffff1673ffffffffffffffffffffffffffffffffffffffff161415612ba4576040517f08c379a0000000000000000000000000000000000000000000000000000000008152600401612b9b906136c1565b60405180910390fd5b6002600083815260200190815260200160002060010160009054906101000a900473ffffffffffffffffffffffffffffffffffffffff1673ffffffffffffffffffffffffffffffffffffffff166323b872dd3330866040518463ffffffff1660e01b8152600401612c179392919061353b565b602060405180830381600087803b158015612c3157600080fd5b505af1158015612c45573d6000803e3d6000fd5b505050506040513d601f19601f82011682018060405250810190612c699190612f55565b5082600360003373ffffffffffffffffffffffffffffffffffffffff1673ffffffffffffffffffffffffffffffffffffffff16815260200190815260200160002060008481526020019081526020016000206000828254612cca91906137a7565b92505081905550505050565b612cde612e7f565b73ffffffffffffffffffffffffffffffffffffffff16612cfc611578565b73ffffffffffffffffffffffffffffffffffffffff1614612d52576040517f08c379a0000000000000000000000000000000000000000000000000000000008152600401612d4990613661565b60405180910390fd5b600073ffffffffffffffffffffffffffffffffffffffff168173ffffffffffffffffffffffffffffffffffffffff161415612dc2576040517f08c379a0000000000000000000000000000000000000000000000000000000008152600401612db990613601565b60405180910390fd5b8073ffffffffffffffffffffffffffffffffffffffff1660008054906101000a900473ffffffffffffffffffffffffffffffffffffffff1673ffffffffffffffffffffffffffffffffffffffff167f8be0079c531659141344cd1fd0a4f28419497f9722a3daafe3b4186f6b6457e060405160405180910390a3806000806101000a81548173ffffffffffffffffffffffffffffffffffffffff021916908373ffffffffffffffffffffffffffffffffffffffff16021790555050565b600033905090565b600081359050612e96816139e7565b92915050565b600081519050612eab816139fe565b92915050565b600081359050612ec081613a15565b92915050565b600081359050612ed581613a2c565b92915050565b600081359050612eea81613a3c565b92915050565b600060208284031215612f0257600080fd5b6000612f1084828501612e87565b91505092915050565b60008060408385031215612f2c57600080fd5b6000612f3a85828601612e87565b9250506020612f4b85828601612eb1565b9150509250929050565b600060208284031215612f6757600080fd5b6000612f7584828501612e9c565b91505092915050565b600060208284031215612f9057600080fd5b6000612f9e84828501612eb1565b91505092915050565b60008060408385031215612fba57600080fd5b6000612fc885828601612eb1565b9250506020612fd985828601612e87565b9150509250929050565b60008060408385031215612ff657600080fd5b600061300485828601612eb1565b925050602061301585828601612ec6565b9150509250929050565b60008060006060848603121561303457600080fd5b600061304286828701612eb1565b935050602061305386828701612edb565b925050604061306486828701612edb565b9150509250925092565b60008060006060848603121561308357600080fd5b600061309186828701612ec6565b93505060206130a286828701612eb1565b92505060406130b386828701612edb565b9150509250925092565b600080600080608085870312156130d357600080fd5b60006130e187828801612ec6565b94505060206130f287828801612eb1565b935050604061310387828801612edb565b925050606061311487828801612edb565b91505092959194509250565b60006020828403121561313257600080fd5b600061314084828501612edb565b91505092915050565b6000806040838503121561315c57600080fd5b600061316a85828601612edb565b925050602061317b85828601612eb1565b9150509250929050565b60006131918383613487565b60c08301905092915050565b6131a68161388b565b82525050565b6131b58161388b565b82525050565b60006131c68261376d565b6131d08185613785565b93506131db8361375d565b8060005b8381101561320c5781516131f38882613185565b97506131fe83613778565b9250506001810190506131df565b5085935050505092915050565b613222816138a9565b82525050565b613231816138a9565b82525050565b613240816138f0565b82525050565b61324f816138f0565b82525050565b6000613262602683613796565b91507f4f776e61626c653a206e6577206f776e657220697320746865207a65726f206160008301527f64647265737300000000000000000000000000000000000000000000000000006020830152604082019050919050565b60006132c8601f83613796565b91507f4e6f7420656e6f75676820746f6b656e7320746f206d616b65207472616465006000830152602082019050919050565b6000613308603883613796565b91507f4c494d4954204f524445522074726164657220646f65736e277420686176652060008301527f656e6f7567682045544820746f206d616b6520747261646500000000000000006020830152604082019050919050565b600061336e602083613796565b91507f4f776e61626c653a2063616c6c6572206973206e6f7420746865206f776e65726000830152602082019050919050565b60006133ae602783613796565b91507f596f7520646f6e2774206861766520656e6f7567682045544820746f206d616b60008301527f65207472616465000000000000000000000000000000000000000000000000006020830152604082019050919050565b6000613414601d83613796565b91507f4e6f7420656e6f756768206d6f6e657920746f2077697468647261772e0000006000830152602082019050919050565b6000613454601c83613796565b91507f546f6b656e20646f65736e277420657869737420696e20546f66752e000000006000830152602082019050919050565b60c08201600082015161349d6000850182613502565b5060208201516134b0602085018261319d565b5060408201516134c36040850182613237565b5060608201516134d66060850182613219565b5060808201516134e96080850182613502565b5060a08201516134fc60a0850182613502565b50505050565b61350b816138e6565b82525050565b61351a816138e6565b82525050565b600060208201905061353560008301846131ac565b92915050565b600060608201905061355060008301866131ac565b61355d60208301856131ac565b61356a6040830184613511565b949350505050565b600060408201905061358760008301856131ac565b6135946020830184613511565b9392505050565b600060208201905081810360008301526135b581846131bb565b905092915050565b60006020820190506135d26000830184613228565b92915050565b60006040820190506135ed6000830185613228565b6135fa60208301846131ac565b9392505050565b6000602082019050818103600083015261361a81613255565b9050919050565b6000602082019050818103600083015261363a816132bb565b9050919050565b6000602082019050818103600083015261365a816132fb565b9050919050565b6000602082019050818103600083015261367a81613361565b9050919050565b6000602082019050818103600083015261369a816133a1565b9050919050565b600060208201905081810360008301526136ba81613407565b9050919050565b600060208201905081810360008301526136da81613447565b9050919050565b60006020820190506136f66000830184613511565b92915050565b600060c0820190506137116000830189613511565b61371e60208301886131ac565b61372b6040830187613246565b6137386060830186613228565b6137456080830185613511565b61375260a0830184613511565b979650505050505050565b6000819050602082019050919050565b600081519050919050565b6000602082019050919050565b600082825260208201905092915050565b600082825260208201905092915050565b60006137b2826138e6565b91506137bd836138e6565b9250827fffffffffffffffffffffffffffffffffffffffffffffffffffffffffffffffff038211156137f2576137f1613975565b5b828201905092915050565b6000613808826138e6565b9150613813836138e6565b9250817fffffffffffffffffffffffffffffffffffffffffffffffffffffffffffffffff048311821515161561384c5761384b613975565b5b828202905092915050565b6000613862826138e6565b915061386d836138e6565b9250828210156138805761387f613975565b5b828203905092915050565b6000613896826138c6565b9050919050565b60008115159050919050565b6000819050919050565b60008190506138c1826139d3565b919050565b600073ffffffffffffffffffffffffffffffffffffffff82169050919050565b6000819050919050565b60006138fb826138b3565b9050919050565b600061390d826138e6565b9150600082141561392157613920613975565b5b600182039050919050565b6000613937826138e6565b91507fffffffffffffffffffffffffffffffffffffffffffffffffffffffffffffffff82141561396a57613969613975565b5b600182019050919050565b7f4e487b7100000000000000000000000000000000000000000000000000000000600052601160045260246000fd5b7f4e487b7100000000000000000000000000000000000000000000000000000000600052602160045260246000fd5b600281106139e4576139e36139a4565b5b50565b6139f08161388b565b81146139fb57600080fd5b50565b613a078161389d565b8114613a1257600080fd5b50565b613a1e816138a9565b8114613a2957600080fd5b50565b60028110613a3957600080fd5b50565b613a45816138e6565b8114613a5057600080fd5b5056fea2646970667358221220c3680a4e82ef5632636aeae8bd9fa57aad53dae8ff46b04881fe3044e641655f64736f6c63430008000033",
  "immutableReferences": {},
  "source": "// SPDX-License-Identifier: MIT\npragma solidity ^0.8.0;\n\nimport \"./Wallet.sol\";\n\n\ncontract Dex is Wallet {\n\n    enum Side {\n        BUY,\n        SELL\n    }\n\n    struct Order {\n        uint id;\n        address trader;\n        Side side;\n        bytes32 ticker;\n        uint amount;\n        uint price;\n    }\n\n    uint nextOrderId = 0;\n\n    mapping(bytes32 => mapping(uint => Order[])) public orderBook; // uint is for the side\n\n    function getOrderBook(bytes32 ticker, Side side) view public returns(Order[] memory){\n        return orderBook[ticker][uint(side)];\n    }\n\n    function createMarketOrder(Side _side, bytes32 _ticker, uint _amount) public {\n        \n        if(_side == Side.SELL){\n            require(balances[msg.sender][_ticker] >= _amount, \"Not enough tokens to make trade\");\n        }\n\n        uint orderBookSide;\n\n        if(_side == Side.BUY){\n            orderBookSide = 1;\n        } else {\n            orderBookSide = 0;\n        }\n\n        Order[] storage orders = orderBook[_ticker][orderBookSide];\n\n        uint totalFilled;\n        uint toFill;\n\n        for (uint256 i = 0; i < orders.length && totalFilled < _amount; i++) {\n            \n            if(totalFilled + orders[i].amount <= _amount){\n                toFill = orders[i].amount;\n            } else if (totalFilled + orders[i].amount > _amount){\n                toFill = orders[i].amount - totalFilled;\n            }\n\n            if(_side == Side.BUY){\n                \n                require(weiBalances[msg.sender] >= toFill * orders[i].price, \"You don't have enough ETH to make trade\");\n                \n                weiBalances[msg.sender] -= toFill * orders[i].price;\n                weiBalances[orders[i].trader] += toFill * orders[i].price;\n\n                balances[msg.sender][_ticker] += toFill;\n                balances[orders[i].trader][_ticker] -= toFill;\n\n            } else if (_side == Side.SELL) {\n                \n                require(weiBalances[orders[i].trader] >= toFill * orders[i].price, \"LIMIT ORDER trader doesn't have enough ETH to make trade\");\n                \n                weiBalances[msg.sender] += toFill * orders[i].price;\n                weiBalances[orders[i].trader] -= toFill * orders[i].price;\n\n                balances[msg.sender][_ticker] -= toFill;\n                balances[orders[i].trader][_ticker] += toFill;\n\n            }\n\n            totalFilled += toFill;\n\n            orders[i].amount = toFill;\n\n        }\n    \n        // Removing filled orders\n        while(orders.length > 0 && orders[0].amount == 0) { // Solidity first checks condition 1 then 2\n            for (uint256 i = 0; i < orders.length-1; i++) {\n                orders[i] = orders[i+1];\n            }\n            orders.pop();\n        }\n\n    }\n    function createLimitOrder(Side _side, bytes32 _ticker, uint _amount, uint _price) public {\n\n        if(_side == Side.BUY){\n            require(weiBalances[msg.sender] >= _amount * _price);\n        }\n        if(_side == Side.SELL){\n            require(balances[msg.sender][_ticker] >= _amount);\n        }\n\n        Order[] storage orders = orderBook[_ticker][uint(_side)];\n\n        orders.push(\n            Order(nextOrderId, msg.sender, _side, _ticker, _amount, _price)\n        );\n\n        // Bubble sort\n\n        uint j = orders.length > 0 ? orders.length-1 : 0;\n\n        if(_side == Side.BUY){\n            while(j>0){\n                if(orders[j-1].price > orders[j].price){\n                    break;\n                }\n                Order memory o = orders[j-1];\n                orders[j-1] = orders[j];\n                orders[j] = o;\n                j--;\n            }\n        } else if(_side == Side.SELL){\n            while(j>0){\n                if(orders[j-1].price < orders[j].price){\n                    break;\n                }\n                Order memory o = orders[j-1];\n                orders[j-1] = orders[j];\n                orders[j] = o;\n                j--;\n            }\n        }\n\n        nextOrderId++;\n\n    }\n\n}",
  "sourcePath": "/Users/solaris/Workspace/SolidityWS/TofuDEX/contracts/Dex.sol",
  "compiler": {
    "name": "solc",
    "version": "0.8.0+commit.c7dfd78e.Emscripten.clang"
  },
  "schemaVersion": "3.3.4",
  "updatedAt": "2021-04-28T07:42:52.887Z",
  "devdoc": {
    "kind": "dev",
    "methods": {
      "owner()": {
        "details": "Returns the address of the current owner."
      },
      "renounceOwnership()": {
        "details": "Leaves the contract without owner. It will not be possible to call `onlyOwner` functions anymore. Can only be called by the current owner. NOTE: Renouncing ownership will leave the contract without an owner, thereby removing any functionality that is only available to the owner."
      },
      "transferOwnership(address)": {
        "details": "Transfers ownership of the contract to a new account (`newOwner`). Can only be called by the current owner."
      }
    },
    "version": 1
  },
  "userdoc": {
    "kind": "user",
    "methods": {},
    "version": 1
  }
}