{
  "contractName": "Dex",
  "abi": [
    {
      "anonymous": false,
      "inputs": [
        {
          "indexed": true,
          "internalType": "address",
          "name": "previousOwner",
          "type": "address"
        },
        {
          "indexed": true,
          "internalType": "address",
          "name": "newOwner",
          "type": "address"
        }
      ],
      "name": "OwnershipTransferred",
      "type": "event"
    },
    {
      "inputs": [
        {
          "internalType": "bytes32",
          "name": "_ticker",
          "type": "bytes32"
        },
        {
          "internalType": "address",
          "name": "_tokenAddress",
          "type": "address"
        }
      ],
      "name": "addToken",
      "outputs": [],
      "stateMutability": "nonpayable",
      "type": "function"
    },
    {
      "inputs": [
        {
          "internalType": "address",
          "name": "",
          "type": "address"
        },
        {
          "internalType": "bytes32",
          "name": "",
          "type": "bytes32"
        }
      ],
      "name": "balances",
      "outputs": [
        {
          "internalType": "uint256",
          "name": "",
          "type": "uint256"
        }
      ],
      "stateMutability": "view",
      "type": "function"
    },
    {
      "inputs": [
        {
          "internalType": "uint256",
          "name": "_amount",
          "type": "uint256"
        },
        {
          "internalType": "bytes32",
          "name": "_ticker",
          "type": "bytes32"
        }
      ],
      "name": "deposit",
      "outputs": [],
      "stateMutability": "nonpayable",
      "type": "function"
    },
    {
      "inputs": [
        {
          "internalType": "bytes32",
          "name": "",
          "type": "bytes32"
        },
        {
          "internalType": "uint256",
          "name": "",
          "type": "uint256"
        },
        {
          "internalType": "uint256",
          "name": "",
          "type": "uint256"
        }
      ],
      "name": "orderBook",
      "outputs": [
        {
          "internalType": "uint256",
          "name": "id",
          "type": "uint256"
        },
        {
          "internalType": "address",
          "name": "trader",
          "type": "address"
        },
        {
          "internalType": "bool",
          "name": "buyOrder",
          "type": "bool"
        },
        {
          "internalType": "bytes32",
          "name": "ticker",
          "type": "bytes32"
        },
        {
          "internalType": "uint256",
          "name": "amount",
          "type": "uint256"
        },
        {
          "internalType": "uint256",
          "name": "price",
          "type": "uint256"
        }
      ],
      "stateMutability": "view",
      "type": "function"
    },
    {
      "inputs": [],
      "name": "owner",
      "outputs": [
        {
          "internalType": "address",
          "name": "",
          "type": "address"
        }
      ],
      "stateMutability": "view",
      "type": "function"
    },
    {
      "inputs": [],
      "name": "renounceOwnership",
      "outputs": [],
      "stateMutability": "nonpayable",
      "type": "function"
    },
    {
      "inputs": [
        {
          "internalType": "uint256",
          "name": "",
          "type": "uint256"
        }
      ],
      "name": "tokenList",
      "outputs": [
        {
          "internalType": "bytes32",
          "name": "",
          "type": "bytes32"
        }
      ],
      "stateMutability": "view",
      "type": "function"
    },
    {
      "inputs": [
        {
          "internalType": "bytes32",
          "name": "",
          "type": "bytes32"
        }
      ],
      "name": "tokenMapping",
      "outputs": [
        {
          "internalType": "bytes32",
          "name": "ticker",
          "type": "bytes32"
        },
        {
          "internalType": "address",
          "name": "tokenAddress",
          "type": "address"
        }
      ],
      "stateMutability": "view",
      "type": "function"
    },
    {
      "inputs": [
        {
          "internalType": "address",
          "name": "newOwner",
          "type": "address"
        }
      ],
      "name": "transferOwnership",
      "outputs": [],
      "stateMutability": "nonpayable",
      "type": "function"
    },
    {
      "inputs": [
        {
          "internalType": "uint256",
          "name": "_amount",
          "type": "uint256"
        },
        {
          "internalType": "bytes32",
          "name": "_ticker",
          "type": "bytes32"
        }
      ],
      "name": "withdraw",
      "outputs": [],
      "stateMutability": "nonpayable",
      "type": "function"
    },
    {
      "inputs": [
        {
          "internalType": "bytes32",
          "name": "ticker",
          "type": "bytes32"
        },
        {
          "internalType": "enum Dex.Side",
          "name": "side",
          "type": "uint8"
        }
      ],
      "name": "getOrderBook",
      "outputs": [
        {
          "components": [
            {
              "internalType": "uint256",
              "name": "id",
              "type": "uint256"
            },
            {
              "internalType": "address",
              "name": "trader",
              "type": "address"
            },
            {
              "internalType": "bool",
              "name": "buyOrder",
              "type": "bool"
            },
            {
              "internalType": "bytes32",
              "name": "ticker",
              "type": "bytes32"
            },
            {
              "internalType": "uint256",
              "name": "amount",
              "type": "uint256"
            },
            {
              "internalType": "uint256",
              "name": "price",
              "type": "uint256"
            }
          ],
          "internalType": "struct Dex.Order[]",
          "name": "",
          "type": "tuple[]"
        }
      ],
      "stateMutability": "view",
      "type": "function"
    }
  ],
  "bytecode": "0x608060405234801561001057600080fd5b5060006100216100c460201b60201c565b9050806000806101000a81548173ffffffffffffffffffffffffffffffffffffffff021916908373ffffffffffffffffffffffffffffffffffffffff1602179055508073ffffffffffffffffffffffffffffffffffffffff16600073ffffffffffffffffffffffffffffffffffffffff167f8be0079c531659141344cd1fd0a4f28419497f9722a3daafe3b4186f6b6457e060405160405180910390a3506100cc565b600033905090565b6115f2806100db6000396000f3fe608060405234801561001057600080fd5b50600436106100a95760003560e01c80639776aacf116100715780639776aacf1461016c5780639ead722214610188578063a8d2021a146101b8578063ba58ea68146101d4578063c9630cb014610204578063f2fde38b14610220576100a9565b80630bb431b6146100ae5780631f14df69146100e3578063667cb4ba14610113578063715018a6146101445780638da5cb5b1461014e575b600080fd5b6100c860048036038101906100c39190610edb565b61023c565b6040516100da9695949392919061139a565b60405180910390f35b6100fd60048036038101906100f89190610dd5565b6102cf565b60405161010a919061137f565b60405180910390f35b61012d60048036038101906101289190610e3a565b6102f4565b60405161013b9291906112d6565b60405180910390f35b61014c610338565b005b610156610472565b604051610163919061121e565b60405180910390f35b61018660048036038101906101819190610e63565b61049b565b005b6101a2600480360381019061019d9190610f2a565b6105d6565b6040516101af91906112bb565b60405180910390f35b6101d260048036038101906101cd9190610f53565b6105fa565b005b6101ee60048036038101906101e99190610e9f565b610864565b6040516101fb9190611299565b60405180910390f35b61021e60048036038101906102199190610f53565b6109b9565b005b61023a60048036038101906102359190610dac565b610b92565b005b6004602052826000526040600020602052816000526040600020818154811061026457600080fd5b906000526020600020906005020160009250925050508060000154908060010160009054906101000a900473ffffffffffffffffffffffffffffffffffffffff16908060010160149054906101000a900460ff16908060020154908060030154908060040154905086565b6003602052816000526040600020602052806000526040600020600091509150505481565b60026020528060005260406000206000915090508060000154908060010160009054906101000a900473ffffffffffffffffffffffffffffffffffffffff16905082565b610340610d3b565b73ffffffffffffffffffffffffffffffffffffffff1661035e610472565b73ffffffffffffffffffffffffffffffffffffffff16146103b4576040517f08c379a00000000000000000000000000000000000000000000000000000000081526004016103ab9061131f565b60405180910390fd5b600073ffffffffffffffffffffffffffffffffffffffff1660008054906101000a900473ffffffffffffffffffffffffffffffffffffffff1673ffffffffffffffffffffffffffffffffffffffff167f8be0079c531659141344cd1fd0a4f28419497f9722a3daafe3b4186f6b6457e060405160405180910390a360008060006101000a81548173ffffffffffffffffffffffffffffffffffffffff021916908373ffffffffffffffffffffffffffffffffffffffff160217905550565b60008060009054906101000a900473ffffffffffffffffffffffffffffffffffffffff16905090565b6104a3610d3b565b73ffffffffffffffffffffffffffffffffffffffff166104c1610472565b73ffffffffffffffffffffffffffffffffffffffff1614610517576040517f08c379a000000000000000000000000000000000000000000000000000000000815260040161050e9061131f565b60405180910390fd5b60405180604001604052808381526020018273ffffffffffffffffffffffffffffffffffffffff16815250600260008481526020019081526020016000206000820151816000015560208201518160010160006101000a81548173ffffffffffffffffffffffffffffffffffffffff021916908373ffffffffffffffffffffffffffffffffffffffff16021790555090505060018290806001815401808255809150506001900390600052602060002001600090919091909150555050565b600181815481106105e657600080fd5b906000526020600020016000915090505481565b80600073ffffffffffffffffffffffffffffffffffffffff166002600083815260200190815260200160002060010160009054906101000a900473ffffffffffffffffffffffffffffffffffffffff1673ffffffffffffffffffffffffffffffffffffffff1614156106a1576040517f08c379a00000000000000000000000000000000000000000000000000000000081526004016106989061135f565b60405180910390fd5b82600360003373ffffffffffffffffffffffffffffffffffffffff1673ffffffffffffffffffffffffffffffffffffffff1681526020019081526020016000206000848152602001908152602001600020541015610734576040517f08c379a000000000000000000000000000000000000000000000000000000000815260040161072b9061133f565b60405180910390fd5b82600360003373ffffffffffffffffffffffffffffffffffffffff1673ffffffffffffffffffffffffffffffffffffffff16815260200190815260200160002060008481526020019081526020016000206000828254610794919061149b565b925050819055506002600083815260200190815260200160002060010160009054906101000a900473ffffffffffffffffffffffffffffffffffffffff1673ffffffffffffffffffffffffffffffffffffffff1663a9059cbb33856040518363ffffffff1660e01b815260040161080c929190611270565b602060405180830381600087803b15801561082657600080fd5b505af115801561083a573d6000803e3d6000fd5b505050506040513d601f19601f8201168201806040525081019061085e9190610e11565b50505050565b60606004600084815260200190815260200160002060008360018111156108b4577f4e487b7100000000000000000000000000000000000000000000000000000000600052602160045260246000fd5b8152602001908152602001600020805480602002602001604051908101604052809291908181526020016000905b828210156109ad57838290600052602060002090600502016040518060c0016040529081600082015481526020016001820160009054906101000a900473ffffffffffffffffffffffffffffffffffffffff1673ffffffffffffffffffffffffffffffffffffffff1673ffffffffffffffffffffffffffffffffffffffff1681526020016001820160149054906101000a900460ff161515151581526020016002820154815260200160038201548152602001600482015481525050815260200190600101906108e2565b50505050905092915050565b80600073ffffffffffffffffffffffffffffffffffffffff166002600083815260200190815260200160002060010160009054906101000a900473ffffffffffffffffffffffffffffffffffffffff1673ffffffffffffffffffffffffffffffffffffffff161415610a60576040517f08c379a0000000000000000000000000000000000000000000000000000000008152600401610a579061135f565b60405180910390fd5b6002600083815260200190815260200160002060010160009054906101000a900473ffffffffffffffffffffffffffffffffffffffff1673ffffffffffffffffffffffffffffffffffffffff166323b872dd3330866040518463ffffffff1660e01b8152600401610ad393929190611239565b602060405180830381600087803b158015610aed57600080fd5b505af1158015610b01573d6000803e3d6000fd5b505050506040513d601f19601f82011682018060405250810190610b259190610e11565b5082600360003373ffffffffffffffffffffffffffffffffffffffff1673ffffffffffffffffffffffffffffffffffffffff16815260200190815260200160002060008481526020019081526020016000206000828254610b869190611445565b92505081905550505050565b610b9a610d3b565b73ffffffffffffffffffffffffffffffffffffffff16610bb8610472565b73ffffffffffffffffffffffffffffffffffffffff1614610c0e576040517f08c379a0000000000000000000000000000000000000000000000000000000008152600401610c059061131f565b60405180910390fd5b600073ffffffffffffffffffffffffffffffffffffffff168173ffffffffffffffffffffffffffffffffffffffff161415610c7e576040517f08c379a0000000000000000000000000000000000000000000000000000000008152600401610c75906112ff565b60405180910390fd5b8073ffffffffffffffffffffffffffffffffffffffff1660008054906101000a900473ffffffffffffffffffffffffffffffffffffffff1673ffffffffffffffffffffffffffffffffffffffff167f8be0079c531659141344cd1fd0a4f28419497f9722a3daafe3b4186f6b6457e060405160405180910390a3806000806101000a81548173ffffffffffffffffffffffffffffffffffffffff021916908373ffffffffffffffffffffffffffffffffffffffff16021790555050565b600033905090565b600081359050610d5281611550565b92915050565b600081519050610d6781611567565b92915050565b600081359050610d7c8161157e565b92915050565b600081359050610d9181611595565b92915050565b600081359050610da6816115a5565b92915050565b600060208284031215610dbe57600080fd5b6000610dcc84828501610d43565b91505092915050565b60008060408385031215610de857600080fd5b6000610df685828601610d43565b9250506020610e0785828601610d6d565b9150509250929050565b600060208284031215610e2357600080fd5b6000610e3184828501610d58565b91505092915050565b600060208284031215610e4c57600080fd5b6000610e5a84828501610d6d565b91505092915050565b60008060408385031215610e7657600080fd5b6000610e8485828601610d6d565b9250506020610e9585828601610d43565b9150509250929050565b60008060408385031215610eb257600080fd5b6000610ec085828601610d6d565b9250506020610ed185828601610d82565b9150509250929050565b600080600060608486031215610ef057600080fd5b6000610efe86828701610d6d565b9350506020610f0f86828701610d97565b9250506040610f2086828701610d97565b9150509250925092565b600060208284031215610f3c57600080fd5b6000610f4a84828501610d97565b91505092915050565b60008060408385031215610f6657600080fd5b6000610f7485828601610d97565b9250506020610f8585828601610d6d565b9150509250929050565b6000610f9b8383611185565b60c08301905092915050565b610fb0816114cf565b82525050565b610fbf816114cf565b82525050565b6000610fd08261140b565b610fda8185611423565b9350610fe5836113fb565b8060005b83811015611016578151610ffd8882610f8f565b975061100883611416565b925050600181019050610fe9565b5085935050505092915050565b61102c816114e1565b82525050565b61103b816114e1565b82525050565b61104a816114ed565b82525050565b611059816114ed565b82525050565b600061106c602683611434565b91507f4f776e61626c653a206e6577206f776e657220697320746865207a65726f206160008301527f64647265737300000000000000000000000000000000000000000000000000006020830152604082019050919050565b60006110d2602083611434565b91507f4f776e61626c653a2063616c6c6572206973206e6f7420746865206f776e65726000830152602082019050919050565b6000611112601183611434565b91507f4e6f7420656e6f756768206d6f6e65792e0000000000000000000000000000006000830152602082019050919050565b6000611152601c83611434565b91507f546f6b656e20646f65736e277420657869737420696e20546f66752e000000006000830152602082019050919050565b60c08201600082015161119b6000850182611200565b5060208201516111ae6020850182610fa7565b5060408201516111c16040850182611023565b5060608201516111d46060850182611041565b5060808201516111e76080850182611200565b5060a08201516111fa60a0850182611200565b50505050565b61120981611517565b82525050565b61121881611517565b82525050565b60006020820190506112336000830184610fb6565b92915050565b600060608201905061124e6000830186610fb6565b61125b6020830185610fb6565b611268604083018461120f565b949350505050565b60006040820190506112856000830185610fb6565b611292602083018461120f565b9392505050565b600060208201905081810360008301526112b38184610fc5565b905092915050565b60006020820190506112d06000830184611050565b92915050565b60006040820190506112eb6000830185611050565b6112f86020830184610fb6565b9392505050565b600060208201905081810360008301526113188161105f565b9050919050565b60006020820190508181036000830152611338816110c5565b9050919050565b6000602082019050818103600083015261135881611105565b9050919050565b6000602082019050818103600083015261137881611145565b9050919050565b6000602082019050611394600083018461120f565b92915050565b600060c0820190506113af600083018961120f565b6113bc6020830188610fb6565b6113c96040830187611032565b6113d66060830186611050565b6113e3608083018561120f565b6113f060a083018461120f565b979650505050505050565b6000819050602082019050919050565b600081519050919050565b6000602082019050919050565b600082825260208201905092915050565b600082825260208201905092915050565b600061145082611517565b915061145b83611517565b9250827fffffffffffffffffffffffffffffffffffffffffffffffffffffffffffffffff038211156114905761148f611521565b5b828201905092915050565b60006114a682611517565b91506114b183611517565b9250828210156114c4576114c3611521565b5b828203905092915050565b60006114da826114f7565b9050919050565b60008115159050919050565b6000819050919050565b600073ffffffffffffffffffffffffffffffffffffffff82169050919050565b6000819050919050565b7f4e487b7100000000000000000000000000000000000000000000000000000000600052601160045260246000fd5b611559816114cf565b811461156457600080fd5b50565b611570816114e1565b811461157b57600080fd5b50565b611587816114ed565b811461159257600080fd5b50565b600281106115a257600080fd5b50565b6115ae81611517565b81146115b957600080fd5b5056fea2646970667358221220297ef2f67ecf13567b6c9ad6489d85b564215ce61f139f955130f597bb3ba95464736f6c63430008000033",
  "immutableReferences": {},
  "source": "// SPDX-License-Identifier: MIT\npragma solidity ^0.8.0;\n\nimport \"./Wallet.sol\";\n\n\ncontract Dex is Wallet {\n\n    enum Side {\n        BUY,\n        SELL\n    }\n\n    struct Order {\n        uint id;\n        address trader;\n        bool buyOrder;\n        bytes32 ticker;\n        uint amount;\n        uint price;\n    }\n\n    mapping(bytes32 => mapping(uint => Order[])) public orderBook;\n\n    function getOrderBook(bytes32 ticker, Side side) view public returns(Order[] memory){\n        return orderBook[ticker][uint(side)];\n    }\n\n    // function createLimitOrder() {\n\n    // }\n\n}",
  "sourcePath": "/Users/solaris/Workspace/SolidityWS/TofuDEX/contracts/Dex.sol",
  "compiler": {
    "name": "solc",
    "version": "0.8.0+commit.c7dfd78e.Emscripten.clang"
  },
  "schemaVersion": "3.3.4",
  "updatedAt": "2021-04-24T07:56:34.288Z",
  "devdoc": {
    "kind": "dev",
    "methods": {
      "owner()": {
        "details": "Returns the address of the current owner."
      },
      "renounceOwnership()": {
        "details": "Leaves the contract without owner. It will not be possible to call `onlyOwner` functions anymore. Can only be called by the current owner. NOTE: Renouncing ownership will leave the contract without an owner, thereby removing any functionality that is only available to the owner."
      },
      "transferOwnership(address)": {
        "details": "Transfers ownership of the contract to a new account (`newOwner`). Can only be called by the current owner."
      }
    },
    "version": 1
  },
  "userdoc": {
    "kind": "user",
    "methods": {},
    "version": 1
  }
}