{
  "contractName": "Dex",
  "abi": [
    {
      "anonymous": false,
      "inputs": [
        {
          "indexed": true,
          "internalType": "address",
          "name": "previousOwner",
          "type": "address"
        },
        {
          "indexed": true,
          "internalType": "address",
          "name": "newOwner",
          "type": "address"
        }
      ],
      "name": "OwnershipTransferred",
      "type": "event"
    },
    {
      "inputs": [
        {
          "internalType": "bytes32",
          "name": "_ticker",
          "type": "bytes32"
        },
        {
          "internalType": "address",
          "name": "_tokenAddress",
          "type": "address"
        }
      ],
      "name": "addToken",
      "outputs": [],
      "stateMutability": "nonpayable",
      "type": "function"
    },
    {
      "inputs": [
        {
          "internalType": "address",
          "name": "",
          "type": "address"
        },
        {
          "internalType": "bytes32",
          "name": "",
          "type": "bytes32"
        }
      ],
      "name": "balances",
      "outputs": [
        {
          "internalType": "uint256",
          "name": "",
          "type": "uint256"
        }
      ],
      "stateMutability": "view",
      "type": "function",
      "constant": true
    },
    {
      "inputs": [
        {
          "internalType": "uint256",
          "name": "_amount",
          "type": "uint256"
        },
        {
          "internalType": "bytes32",
          "name": "_ticker",
          "type": "bytes32"
        }
      ],
      "name": "deposit",
      "outputs": [],
      "stateMutability": "nonpayable",
      "type": "function"
    },
    {
      "inputs": [
        {
          "internalType": "uint256",
          "name": "_amount",
          "type": "uint256"
        }
      ],
      "name": "depositWei",
      "outputs": [],
      "stateMutability": "payable",
      "type": "function",
      "payable": true
    },
    {
      "inputs": [
        {
          "internalType": "bytes32",
          "name": "",
          "type": "bytes32"
        },
        {
          "internalType": "uint256",
          "name": "",
          "type": "uint256"
        },
        {
          "internalType": "uint256",
          "name": "",
          "type": "uint256"
        }
      ],
      "name": "orderBook",
      "outputs": [
        {
          "internalType": "uint256",
          "name": "id",
          "type": "uint256"
        },
        {
          "internalType": "address",
          "name": "trader",
          "type": "address"
        },
        {
          "internalType": "bool",
          "name": "buyOrder",
          "type": "bool"
        },
        {
          "internalType": "bytes32",
          "name": "ticker",
          "type": "bytes32"
        },
        {
          "internalType": "uint256",
          "name": "amount",
          "type": "uint256"
        },
        {
          "internalType": "uint256",
          "name": "price",
          "type": "uint256"
        }
      ],
      "stateMutability": "view",
      "type": "function",
      "constant": true
    },
    {
      "inputs": [],
      "name": "owner",
      "outputs": [
        {
          "internalType": "address",
          "name": "",
          "type": "address"
        }
      ],
      "stateMutability": "view",
      "type": "function",
      "constant": true
    },
    {
      "inputs": [],
      "name": "renounceOwnership",
      "outputs": [],
      "stateMutability": "nonpayable",
      "type": "function"
    },
    {
      "inputs": [
        {
          "internalType": "uint256",
          "name": "",
          "type": "uint256"
        }
      ],
      "name": "tokenList",
      "outputs": [
        {
          "internalType": "bytes32",
          "name": "",
          "type": "bytes32"
        }
      ],
      "stateMutability": "view",
      "type": "function",
      "constant": true
    },
    {
      "inputs": [
        {
          "internalType": "bytes32",
          "name": "",
          "type": "bytes32"
        }
      ],
      "name": "tokenMapping",
      "outputs": [
        {
          "internalType": "bytes32",
          "name": "ticker",
          "type": "bytes32"
        },
        {
          "internalType": "address",
          "name": "tokenAddress",
          "type": "address"
        }
      ],
      "stateMutability": "view",
      "type": "function",
      "constant": true
    },
    {
      "inputs": [
        {
          "internalType": "address",
          "name": "newOwner",
          "type": "address"
        }
      ],
      "name": "transferOwnership",
      "outputs": [],
      "stateMutability": "nonpayable",
      "type": "function"
    },
    {
      "inputs": [
        {
          "internalType": "address",
          "name": "",
          "type": "address"
        }
      ],
      "name": "weiBalances",
      "outputs": [
        {
          "internalType": "uint256",
          "name": "",
          "type": "uint256"
        }
      ],
      "stateMutability": "view",
      "type": "function",
      "constant": true
    },
    {
      "inputs": [
        {
          "internalType": "uint256",
          "name": "_amount",
          "type": "uint256"
        },
        {
          "internalType": "bytes32",
          "name": "_ticker",
          "type": "bytes32"
        }
      ],
      "name": "withdraw",
      "outputs": [],
      "stateMutability": "nonpayable",
      "type": "function"
    },
    {
      "inputs": [
        {
          "internalType": "bytes32",
          "name": "ticker",
          "type": "bytes32"
        },
        {
          "internalType": "enum Dex.Side",
          "name": "side",
          "type": "uint8"
        }
      ],
      "name": "getOrderBook",
      "outputs": [
        {
          "components": [
            {
              "internalType": "uint256",
              "name": "id",
              "type": "uint256"
            },
            {
              "internalType": "address",
              "name": "trader",
              "type": "address"
            },
            {
              "internalType": "bool",
              "name": "buyOrder",
              "type": "bool"
            },
            {
              "internalType": "bytes32",
              "name": "ticker",
              "type": "bytes32"
            },
            {
              "internalType": "uint256",
              "name": "amount",
              "type": "uint256"
            },
            {
              "internalType": "uint256",
              "name": "price",
              "type": "uint256"
            }
          ],
          "internalType": "struct Dex.Order[]",
          "name": "",
          "type": "tuple[]"
        }
      ],
      "stateMutability": "view",
      "type": "function",
      "constant": true
    },
    {
      "inputs": [
        {
          "internalType": "enum Dex.Side",
          "name": "_side",
          "type": "uint8"
        },
        {
          "internalType": "bytes32",
          "name": "_ticker",
          "type": "bytes32"
        },
        {
          "internalType": "uint256",
          "name": "_amount",
          "type": "uint256"
        },
        {
          "internalType": "uint256",
          "name": "_price",
          "type": "uint256"
        }
      ],
      "name": "createLimitOrder",
      "outputs": [],
      "stateMutability": "nonpayable",
      "type": "function"
    }
  ],
  "bytecode": "0x608060405234801561001057600080fd5b5060006100216100c460201b60201c565b9050806000806101000a81548173ffffffffffffffffffffffffffffffffffffffff021916908373ffffffffffffffffffffffffffffffffffffffff1602179055508073ffffffffffffffffffffffffffffffffffffffff16600073ffffffffffffffffffffffffffffffffffffffff167f8be0079c531659141344cd1fd0a4f28419497f9722a3daafe3b4186f6b6457e060405160405180910390a3506100cc565b600033905090565b61193c806100db6000396000f3fe6080604052600436106100dd5760003560e01c80639776aacf1161007f578063a8d2021a11610059578063a8d2021a146102c9578063ba58ea68146102f2578063c9630cb01461032f578063f2fde38b14610358576100dd565b80639776aacf146102475780639ead722214610270578063a3f81da0146102ad576100dd565b80636ef9e145116100bb5780636ef9e1451461019f5780636f3b62f9146101dc578063715018a6146102055780638da5cb5b1461021c576100dd565b80630bb431b6146100e25780631f14df6914610124578063667cb4ba14610161575b600080fd5b3480156100ee57600080fd5b5061010960048036038101906101049190611168565b610381565b60405161011b9695949392919061168a565b60405180910390f35b34801561013057600080fd5b5061014b60048036038101906101469190611062565b610414565b604051610158919061166f565b60405180910390f35b34801561016d57600080fd5b50610188600480360381019061018391906110c7565b610439565b6040516101969291906115c6565b60405180910390f35b3480156101ab57600080fd5b506101c660048036038101906101c19190611039565b61047d565b6040516101d3919061166f565b60405180910390f35b3480156101e857600080fd5b5061020360048036038101906101fe91906111b7565b610495565b005b34801561021157600080fd5b5061021a61056c565b005b34801561022857600080fd5b506102316106a6565b60405161023e919061150e565b60405180910390f35b34801561025357600080fd5b5061026e600480360381019061026991906110f0565b6106cf565b005b34801561027c57600080fd5b506102976004803603810190610292919061121a565b61080a565b6040516102a491906115ab565b60405180910390f35b6102c760048036038101906102c2919061121a565b61082e565b005b3480156102d557600080fd5b506102f060048036038101906102eb9190611243565b610887565b005b3480156102fe57600080fd5b506103196004803603810190610314919061112c565b610af1565b6040516103269190611589565b60405180910390f35b34801561033b57600080fd5b5061035660048036038101906103519190611243565b610c46565b005b34801561036457600080fd5b5061037f600480360381019061037a9190611039565b610e1f565b005b600560205282600052604060002060205281600052604060002081815481106103a957600080fd5b906000526020600020906005020160009250925050508060000154908060010160009054906101000a900473ffffffffffffffffffffffffffffffffffffffff16908060010160149054906101000a900460ff16908060020154908060030154908060040154905086565b6004602052816000526040600020602052806000526040600020600091509150505481565b60036020528060005260406000206000915090508060000154908060010160009054906101000a900473ffffffffffffffffffffffffffffffffffffffff16905082565b60026020528060005260406000206000915090505481565b600060018111156104cf577f4e487b7100000000000000000000000000000000000000000000000000000000600052602160045260246000fd5b846001811115610508577f4e487b7100000000000000000000000000000000000000000000000000000000600052602160045260246000fd5b141561056657808261051a919061178b565b600260003373ffffffffffffffffffffffffffffffffffffffff1673ffffffffffffffffffffffffffffffffffffffff16815260200190815260200160002054101561056557600080fd5b5b50505050565b610574610fc8565b73ffffffffffffffffffffffffffffffffffffffff166105926106a6565b73ffffffffffffffffffffffffffffffffffffffff16146105e8576040517f08c379a00000000000000000000000000000000000000000000000000000000081526004016105df9061160f565b60405180910390fd5b600073ffffffffffffffffffffffffffffffffffffffff1660008054906101000a900473ffffffffffffffffffffffffffffffffffffffff1673ffffffffffffffffffffffffffffffffffffffff167f8be0079c531659141344cd1fd0a4f28419497f9722a3daafe3b4186f6b6457e060405160405180910390a360008060006101000a81548173ffffffffffffffffffffffffffffffffffffffff021916908373ffffffffffffffffffffffffffffffffffffffff160217905550565b60008060009054906101000a900473ffffffffffffffffffffffffffffffffffffffff16905090565b6106d7610fc8565b73ffffffffffffffffffffffffffffffffffffffff166106f56106a6565b73ffffffffffffffffffffffffffffffffffffffff161461074b576040517f08c379a00000000000000000000000000000000000000000000000000000000081526004016107429061160f565b60405180910390fd5b60405180604001604052808381526020018273ffffffffffffffffffffffffffffffffffffffff16815250600360008481526020019081526020016000206000820151816000015560208201518160010160006101000a81548173ffffffffffffffffffffffffffffffffffffffff021916908373ffffffffffffffffffffffffffffffffffffffff16021790555090505060018290806001815401808255809150506001900390600052602060002001600090919091909150555050565b6001818154811061081a57600080fd5b906000526020600020016000915090505481565b80600260003373ffffffffffffffffffffffffffffffffffffffff1673ffffffffffffffffffffffffffffffffffffffff168152602001908152602001600020600082825461087d9190611735565b9250508190555050565b80600073ffffffffffffffffffffffffffffffffffffffff166003600083815260200190815260200160002060010160009054906101000a900473ffffffffffffffffffffffffffffffffffffffff1673ffffffffffffffffffffffffffffffffffffffff16141561092e576040517f08c379a00000000000000000000000000000000000000000000000000000000081526004016109259061164f565b60405180910390fd5b82600460003373ffffffffffffffffffffffffffffffffffffffff1673ffffffffffffffffffffffffffffffffffffffff16815260200190815260200160002060008481526020019081526020016000205410156109c1576040517f08c379a00000000000000000000000000000000000000000000000000000000081526004016109b89061162f565b60405180910390fd5b82600460003373ffffffffffffffffffffffffffffffffffffffff1673ffffffffffffffffffffffffffffffffffffffff16815260200190815260200160002060008481526020019081526020016000206000828254610a2191906117e5565b925050819055506003600083815260200190815260200160002060010160009054906101000a900473ffffffffffffffffffffffffffffffffffffffff1673ffffffffffffffffffffffffffffffffffffffff1663a9059cbb33856040518363ffffffff1660e01b8152600401610a99929190611560565b602060405180830381600087803b158015610ab357600080fd5b505af1158015610ac7573d6000803e3d6000fd5b505050506040513d601f19601f82011682018060405250810190610aeb919061109e565b50505050565b6060600560008481526020019081526020016000206000836001811115610b41577f4e487b7100000000000000000000000000000000000000000000000000000000600052602160045260246000fd5b8152602001908152602001600020805480602002602001604051908101604052809291908181526020016000905b82821015610c3a57838290600052602060002090600502016040518060c0016040529081600082015481526020016001820160009054906101000a900473ffffffffffffffffffffffffffffffffffffffff1673ffffffffffffffffffffffffffffffffffffffff1673ffffffffffffffffffffffffffffffffffffffff1681526020016001820160149054906101000a900460ff16151515158152602001600282015481526020016003820154815260200160048201548152505081526020019060010190610b6f565b50505050905092915050565b80600073ffffffffffffffffffffffffffffffffffffffff166003600083815260200190815260200160002060010160009054906101000a900473ffffffffffffffffffffffffffffffffffffffff1673ffffffffffffffffffffffffffffffffffffffff161415610ced576040517f08c379a0000000000000000000000000000000000000000000000000000000008152600401610ce49061164f565b60405180910390fd5b6003600083815260200190815260200160002060010160009054906101000a900473ffffffffffffffffffffffffffffffffffffffff1673ffffffffffffffffffffffffffffffffffffffff166323b872dd3330866040518463ffffffff1660e01b8152600401610d6093929190611529565b602060405180830381600087803b158015610d7a57600080fd5b505af1158015610d8e573d6000803e3d6000fd5b505050506040513d601f19601f82011682018060405250810190610db2919061109e565b5082600460003373ffffffffffffffffffffffffffffffffffffffff1673ffffffffffffffffffffffffffffffffffffffff16815260200190815260200160002060008481526020019081526020016000206000828254610e139190611735565b92505081905550505050565b610e27610fc8565b73ffffffffffffffffffffffffffffffffffffffff16610e456106a6565b73ffffffffffffffffffffffffffffffffffffffff1614610e9b576040517f08c379a0000000000000000000000000000000000000000000000000000000008152600401610e929061160f565b60405180910390fd5b600073ffffffffffffffffffffffffffffffffffffffff168173ffffffffffffffffffffffffffffffffffffffff161415610f0b576040517f08c379a0000000000000000000000000000000000000000000000000000000008152600401610f02906115ef565b60405180910390fd5b8073ffffffffffffffffffffffffffffffffffffffff1660008054906101000a900473ffffffffffffffffffffffffffffffffffffffff1673ffffffffffffffffffffffffffffffffffffffff167f8be0079c531659141344cd1fd0a4f28419497f9722a3daafe3b4186f6b6457e060405160405180910390a3806000806101000a81548173ffffffffffffffffffffffffffffffffffffffff021916908373ffffffffffffffffffffffffffffffffffffffff16021790555050565b600033905090565b600081359050610fdf8161189a565b92915050565b600081519050610ff4816118b1565b92915050565b600081359050611009816118c8565b92915050565b60008135905061101e816118df565b92915050565b600081359050611033816118ef565b92915050565b60006020828403121561104b57600080fd5b600061105984828501610fd0565b91505092915050565b6000806040838503121561107557600080fd5b600061108385828601610fd0565b925050602061109485828601610ffa565b9150509250929050565b6000602082840312156110b057600080fd5b60006110be84828501610fe5565b91505092915050565b6000602082840312156110d957600080fd5b60006110e784828501610ffa565b91505092915050565b6000806040838503121561110357600080fd5b600061111185828601610ffa565b925050602061112285828601610fd0565b9150509250929050565b6000806040838503121561113f57600080fd5b600061114d85828601610ffa565b925050602061115e8582860161100f565b9150509250929050565b60008060006060848603121561117d57600080fd5b600061118b86828701610ffa565b935050602061119c86828701611024565b92505060406111ad86828701611024565b9150509250925092565b600080600080608085870312156111cd57600080fd5b60006111db8782880161100f565b94505060206111ec87828801610ffa565b93505060406111fd87828801611024565b925050606061120e87828801611024565b91505092959194509250565b60006020828403121561122c57600080fd5b600061123a84828501611024565b91505092915050565b6000806040838503121561125657600080fd5b600061126485828601611024565b925050602061127585828601610ffa565b9150509250929050565b600061128b8383611475565b60c08301905092915050565b6112a081611819565b82525050565b6112af81611819565b82525050565b60006112c0826116fb565b6112ca8185611713565b93506112d5836116eb565b8060005b838110156113065781516112ed888261127f565b97506112f883611706565b9250506001810190506112d9565b5085935050505092915050565b61131c8161182b565b82525050565b61132b8161182b565b82525050565b61133a81611837565b82525050565b61134981611837565b82525050565b600061135c602683611724565b91507f4f776e61626c653a206e6577206f776e657220697320746865207a65726f206160008301527f64647265737300000000000000000000000000000000000000000000000000006020830152604082019050919050565b60006113c2602083611724565b91507f4f776e61626c653a2063616c6c6572206973206e6f7420746865206f776e65726000830152602082019050919050565b6000611402601d83611724565b91507f4e6f7420656e6f756768206d6f6e657920746f2077697468647261772e0000006000830152602082019050919050565b6000611442601c83611724565b91507f546f6b656e20646f65736e277420657869737420696e20546f66752e000000006000830152602082019050919050565b60c08201600082015161148b60008501826114f0565b50602082015161149e6020850182611297565b5060408201516114b16040850182611313565b5060608201516114c46060850182611331565b5060808201516114d760808501826114f0565b5060a08201516114ea60a08501826114f0565b50505050565b6114f981611861565b82525050565b61150881611861565b82525050565b600060208201905061152360008301846112a6565b92915050565b600060608201905061153e60008301866112a6565b61154b60208301856112a6565b61155860408301846114ff565b949350505050565b600060408201905061157560008301856112a6565b61158260208301846114ff565b9392505050565b600060208201905081810360008301526115a381846112b5565b905092915050565b60006020820190506115c06000830184611340565b92915050565b60006040820190506115db6000830185611340565b6115e860208301846112a6565b9392505050565b600060208201905081810360008301526116088161134f565b9050919050565b60006020820190508181036000830152611628816113b5565b9050919050565b60006020820190508181036000830152611648816113f5565b9050919050565b6000602082019050818103600083015261166881611435565b9050919050565b600060208201905061168460008301846114ff565b92915050565b600060c08201905061169f60008301896114ff565b6116ac60208301886112a6565b6116b96040830187611322565b6116c66060830186611340565b6116d360808301856114ff565b6116e060a08301846114ff565b979650505050505050565b6000819050602082019050919050565b600081519050919050565b6000602082019050919050565b600082825260208201905092915050565b600082825260208201905092915050565b600061174082611861565b915061174b83611861565b9250827fffffffffffffffffffffffffffffffffffffffffffffffffffffffffffffffff038211156117805761177f61186b565b5b828201905092915050565b600061179682611861565b91506117a183611861565b9250817fffffffffffffffffffffffffffffffffffffffffffffffffffffffffffffffff04831182151516156117da576117d961186b565b5b828202905092915050565b60006117f082611861565b91506117fb83611861565b92508282101561180e5761180d61186b565b5b828203905092915050565b600061182482611841565b9050919050565b60008115159050919050565b6000819050919050565b600073ffffffffffffffffffffffffffffffffffffffff82169050919050565b6000819050919050565b7f4e487b7100000000000000000000000000000000000000000000000000000000600052601160045260246000fd5b6118a381611819565b81146118ae57600080fd5b50565b6118ba8161182b565b81146118c557600080fd5b50565b6118d181611837565b81146118dc57600080fd5b50565b600281106118ec57600080fd5b50565b6118f881611861565b811461190357600080fd5b5056fea2646970667358221220b601855d09419e3d424b9591e08544fa009a10606e53f46b04aa82e7a6ca01e064736f6c63430008000033",
  "immutableReferences": {},
  "source": "// SPDX-License-Identifier: MIT\npragma solidity ^0.8.0;\n\nimport \"./Wallet.sol\";\n\n\ncontract Dex is Wallet {\n\n    enum Side {\n        BUY,\n        SELL\n    }\n\n    struct Order {\n        uint id;\n        address trader;\n        bool buyOrder;\n        bytes32 ticker;\n        uint amount;\n        uint price;\n    }\n\n    mapping(bytes32 => mapping(uint => Order[])) public orderBook;\n\n    function getOrderBook(bytes32 ticker, Side side) view public returns(Order[] memory){\n        return orderBook[ticker][uint(side)];\n    }\n\n    // function getOrderInfo (bytes32 i, uint j) public pure returns (uint id_, address trader_, bool buyOrder_, bytes32 ticker_, uint amount_, uint price_){\n    //     return (orderBook[i][j].id, orderBook[i][j].trader, orderBook[i][j].buyOrder, orderBook[i][j].ticker, orderBook[i][j].amount, orderBook[i][j].price);\n    // }\n\n    function createLimitOrder(Side _side, bytes32 _ticker, uint _amount, uint _price) public {\n        if(_side == Side.BUY){\n            require(weiBalances[msg.sender] >= _amount * _price);\n\n        }\n    }\n\n}",
  "sourcePath": "/Users/solaris/Workspace/SolidityWS/TofuDEX/contracts/Dex.sol",
  "compiler": {
    "name": "solc",
    "version": "0.8.0+commit.c7dfd78e.Emscripten.clang"
  },
  "schemaVersion": "3.3.4",
  "updatedAt": "2021-04-26T03:56:54.887Z",
  "networkType": "ethereum",
  "devdoc": {
    "kind": "dev",
    "methods": {
      "owner()": {
        "details": "Returns the address of the current owner."
      },
      "renounceOwnership()": {
        "details": "Leaves the contract without owner. It will not be possible to call `onlyOwner` functions anymore. Can only be called by the current owner. NOTE: Renouncing ownership will leave the contract without an owner, thereby removing any functionality that is only available to the owner."
      },
      "transferOwnership(address)": {
        "details": "Transfers ownership of the contract to a new account (`newOwner`). Can only be called by the current owner."
      }
    },
    "version": 1
  },
  "userdoc": {
    "kind": "user",
    "methods": {},
    "version": 1
  }
}