{
  "contractName": "Dex",
  "abi": [
    {
      "anonymous": false,
      "inputs": [
        {
          "indexed": true,
          "internalType": "address",
          "name": "previousOwner",
          "type": "address"
        },
        {
          "indexed": true,
          "internalType": "address",
          "name": "newOwner",
          "type": "address"
        }
      ],
      "name": "OwnershipTransferred",
      "type": "event"
    },
    {
      "inputs": [
        {
          "internalType": "bytes32",
          "name": "_ticker",
          "type": "bytes32"
        },
        {
          "internalType": "address",
          "name": "_tokenAddress",
          "type": "address"
        }
      ],
      "name": "addToken",
      "outputs": [],
      "stateMutability": "nonpayable",
      "type": "function"
    },
    {
      "inputs": [
        {
          "internalType": "address",
          "name": "",
          "type": "address"
        },
        {
          "internalType": "bytes32",
          "name": "",
          "type": "bytes32"
        }
      ],
      "name": "balances",
      "outputs": [
        {
          "internalType": "uint256",
          "name": "",
          "type": "uint256"
        }
      ],
      "stateMutability": "view",
      "type": "function"
    },
    {
      "inputs": [
        {
          "internalType": "uint256",
          "name": "_amount",
          "type": "uint256"
        },
        {
          "internalType": "bytes32",
          "name": "_ticker",
          "type": "bytes32"
        }
      ],
      "name": "deposit",
      "outputs": [],
      "stateMutability": "nonpayable",
      "type": "function"
    },
    {
      "inputs": [],
      "name": "depositWei",
      "outputs": [],
      "stateMutability": "payable",
      "type": "function"
    },
    {
      "inputs": [
        {
          "internalType": "bytes32",
          "name": "",
          "type": "bytes32"
        },
        {
          "internalType": "uint256",
          "name": "",
          "type": "uint256"
        },
        {
          "internalType": "uint256",
          "name": "",
          "type": "uint256"
        }
      ],
      "name": "orderBook",
      "outputs": [
        {
          "internalType": "uint256",
          "name": "id",
          "type": "uint256"
        },
        {
          "internalType": "address",
          "name": "trader",
          "type": "address"
        },
        {
          "internalType": "enum Dex.Side",
          "name": "side",
          "type": "uint8"
        },
        {
          "internalType": "bytes32",
          "name": "ticker",
          "type": "bytes32"
        },
        {
          "internalType": "uint256",
          "name": "amount",
          "type": "uint256"
        },
        {
          "internalType": "uint256",
          "name": "price",
          "type": "uint256"
        }
      ],
      "stateMutability": "view",
      "type": "function"
    },
    {
      "inputs": [],
      "name": "owner",
      "outputs": [
        {
          "internalType": "address",
          "name": "",
          "type": "address"
        }
      ],
      "stateMutability": "view",
      "type": "function"
    },
    {
      "inputs": [],
      "name": "renounceOwnership",
      "outputs": [],
      "stateMutability": "nonpayable",
      "type": "function"
    },
    {
      "inputs": [
        {
          "internalType": "uint256",
          "name": "",
          "type": "uint256"
        }
      ],
      "name": "tokenList",
      "outputs": [
        {
          "internalType": "bytes32",
          "name": "",
          "type": "bytes32"
        }
      ],
      "stateMutability": "view",
      "type": "function"
    },
    {
      "inputs": [
        {
          "internalType": "bytes32",
          "name": "",
          "type": "bytes32"
        }
      ],
      "name": "tokenMapping",
      "outputs": [
        {
          "internalType": "bytes32",
          "name": "ticker",
          "type": "bytes32"
        },
        {
          "internalType": "address",
          "name": "tokenAddress",
          "type": "address"
        }
      ],
      "stateMutability": "view",
      "type": "function"
    },
    {
      "inputs": [
        {
          "internalType": "address",
          "name": "newOwner",
          "type": "address"
        }
      ],
      "name": "transferOwnership",
      "outputs": [],
      "stateMutability": "nonpayable",
      "type": "function"
    },
    {
      "inputs": [
        {
          "internalType": "address",
          "name": "",
          "type": "address"
        }
      ],
      "name": "weiBalances",
      "outputs": [
        {
          "internalType": "uint256",
          "name": "",
          "type": "uint256"
        }
      ],
      "stateMutability": "view",
      "type": "function"
    },
    {
      "inputs": [
        {
          "internalType": "uint256",
          "name": "_amount",
          "type": "uint256"
        },
        {
          "internalType": "bytes32",
          "name": "_ticker",
          "type": "bytes32"
        }
      ],
      "name": "withdraw",
      "outputs": [],
      "stateMutability": "nonpayable",
      "type": "function"
    },
    {
      "inputs": [
        {
          "internalType": "bytes32",
          "name": "ticker",
          "type": "bytes32"
        },
        {
          "internalType": "enum Dex.Side",
          "name": "side",
          "type": "uint8"
        }
      ],
      "name": "getOrderBook",
      "outputs": [
        {
          "components": [
            {
              "internalType": "uint256",
              "name": "id",
              "type": "uint256"
            },
            {
              "internalType": "address",
              "name": "trader",
              "type": "address"
            },
            {
              "internalType": "enum Dex.Side",
              "name": "side",
              "type": "uint8"
            },
            {
              "internalType": "bytes32",
              "name": "ticker",
              "type": "bytes32"
            },
            {
              "internalType": "uint256",
              "name": "amount",
              "type": "uint256"
            },
            {
              "internalType": "uint256",
              "name": "price",
              "type": "uint256"
            }
          ],
          "internalType": "struct Dex.Order[]",
          "name": "",
          "type": "tuple[]"
        }
      ],
      "stateMutability": "view",
      "type": "function"
    },
    {
      "inputs": [
        {
          "internalType": "enum Dex.Side",
          "name": "_side",
          "type": "uint8"
        },
        {
          "internalType": "bytes32",
          "name": "_ticker",
          "type": "bytes32"
        },
        {
          "internalType": "uint256",
          "name": "_amount",
          "type": "uint256"
        },
        {
          "internalType": "uint256",
          "name": "_price",
          "type": "uint256"
        }
      ],
      "name": "createLimitOrder",
      "outputs": [],
      "stateMutability": "nonpayable",
      "type": "function"
    }
  ],
  "bytecode": "0x608060405234801561001057600080fd5b5060006100216100c460201b60201c565b9050806000806101000a81548173ffffffffffffffffffffffffffffffffffffffff021916908373ffffffffffffffffffffffffffffffffffffffff1602179055508073ffffffffffffffffffffffffffffffffffffffff16600073ffffffffffffffffffffffffffffffffffffffff167f8be0079c531659141344cd1fd0a4f28419497f9722a3daafe3b4186f6b6457e060405160405180910390a3506100cc565b600033905090565b6127f0806100db6000396000f3fe6080604052600436106100dd5760003560e01c80638da5cb5b1161007f578063a8d2021a11610059578063a8d2021a146102b7578063ba58ea68146102e0578063c9630cb01461031d578063f2fde38b14610346576100dd565b80638da5cb5b146102265780639776aacf146102515780639ead72221461027a576100dd565b8063667cb4ba116100bb578063667cb4ba1461016b5780636ef9e145146101a95780636f3b62f9146101e6578063715018a61461020f576100dd565b80630bb431b6146100e257806315488b88146101245780631f14df691461012e575b600080fd5b3480156100ee57600080fd5b5061010960048036038101906101049190611f41565b61036f565b60405161011b96959493929190612463565b60405180910390f35b61012c610402565b005b34801561013a57600080fd5b5061015560048036038101906101509190611e3b565b61045a565b6040516101629190612448565b60405180910390f35b34801561017757600080fd5b50610192600480360381019061018d9190611ea0565b61047f565b6040516101a092919061239f565b60405180910390f35b3480156101b557600080fd5b506101d060048036038101906101cb9190611e12565b6104c3565b6040516101dd9190612448565b60405180910390f35b3480156101f257600080fd5b5061020d60048036038101906102089190611f90565b6104db565b005b34801561021b57600080fd5b50610224611332565b005b34801561023257600080fd5b5061023b61146c565b60405161024891906122e7565b60405180910390f35b34801561025d57600080fd5b5061027860048036038101906102739190611ec9565b611495565b005b34801561028657600080fd5b506102a1600480360381019061029c9190611ff3565b6115d0565b6040516102ae9190612384565b60405180910390f35b3480156102c357600080fd5b506102de60048036038101906102d9919061201c565b6115f4565b005b3480156102ec57600080fd5b5061030760048036038101906103029190611f05565b61185e565b6040516103149190612362565b60405180910390f35b34801561032957600080fd5b50610344600480360381019061033f919061201c565b611a1f565b005b34801561035257600080fd5b5061036d60048036038101906103689190611e12565b611bf8565b005b6006602052826000526040600020602052816000526040600020818154811061039757600080fd5b906000526020600020906005020160009250925050508060000154908060010160009054906101000a900473ffffffffffffffffffffffffffffffffffffffff16908060010160149054906101000a900460ff16908060020154908060030154908060040154905086565b34600260003373ffffffffffffffffffffffffffffffffffffffff1673ffffffffffffffffffffffffffffffffffffffff1681526020019081526020016000206000828254610451919061250e565b92505081905550565b6004602052816000526040600020602052806000526040600020600091509150505481565b60036020528060005260406000206000915090508060000154908060010160009054906101000a900473ffffffffffffffffffffffffffffffffffffffff16905082565b60026020528060005260406000206000915090505481565b60006001811115610515577f4e487b7100000000000000000000000000000000000000000000000000000000600052602160045260246000fd5b84600181111561054e577f4e487b7100000000000000000000000000000000000000000000000000000000600052602160045260246000fd5b14156105ac5780826105609190612564565b600260003373ffffffffffffffffffffffffffffffffffffffff1673ffffffffffffffffffffffffffffffffffffffff1681526020019081526020016000205410156105ab57600080fd5b5b6001808111156105e5577f4e487b7100000000000000000000000000000000000000000000000000000000600052602160045260246000fd5b84600181111561061e577f4e487b7100000000000000000000000000000000000000000000000000000000600052602160045260246000fd5b14156106825781600460003373ffffffffffffffffffffffffffffffffffffffff1673ffffffffffffffffffffffffffffffffffffffff168152602001908152602001600020600085815260200190815260200160002054101561068157600080fd5b5b60006006600085815260200190815260200160002060008660018111156106d2577f4e487b7100000000000000000000000000000000000000000000000000000000600052602160045260246000fd5b81526020019081526020016000209050806040518060c0016040528060055481526020013373ffffffffffffffffffffffffffffffffffffffff16815260200187600181111561074b577f4e487b7100000000000000000000000000000000000000000000000000000000600052602160045260246000fd5b81526020018681526020018581526020018481525090806001815401808255809150506001900390600052602060002090600502016000909190919091506000820151816000015560208201518160010160006101000a81548173ffffffffffffffffffffffffffffffffffffffff021916908373ffffffffffffffffffffffffffffffffffffffff16021790555060408201518160010160146101000a81548160ff0219169083600181111561082b577f4e487b7100000000000000000000000000000000000000000000000000000000600052602160045260246000fd5b0217905550606082015181600201556080820151816003015560a082015181600401555050600080828054905011610864576000610876565b6001828054905061087591906125be565b5b9050600060018111156108b2577f4e487b7100000000000000000000000000000000000000000000000000000000600052602160045260246000fd5b8660018111156108eb577f4e487b7100000000000000000000000000000000000000000000000000000000600052602160045260246000fd5b1415610dc7575b6000811115610dc257818181548110610934577f4e487b7100000000000000000000000000000000000000000000000000000000600052603260045260246000fd5b9060005260206000209060050201600401548260018361095491906125be565b8154811061098b577f4e487b7100000000000000000000000000000000000000000000000000000000600052603260045260246000fd5b90600052602060002090600502016004015411156109a857610dc2565b6000826001836109b891906125be565b815481106109ef577f4e487b7100000000000000000000000000000000000000000000000000000000600052603260045260246000fd5b90600052602060002090600502016040518060c0016040529081600082015481526020016001820160009054906101000a900473ffffffffffffffffffffffffffffffffffffffff1673ffffffffffffffffffffffffffffffffffffffff1673ffffffffffffffffffffffffffffffffffffffff1681526020016001820160149054906101000a900460ff166001811115610ab3577f4e487b7100000000000000000000000000000000000000000000000000000000600052602160045260246000fd5b6001811115610aeb577f4e487b7100000000000000000000000000000000000000000000000000000000600052602160045260246000fd5b815260200160028201548152602001600382015481526020016004820154815250509050828281548110610b48577f4e487b7100000000000000000000000000000000000000000000000000000000600052603260045260246000fd5b906000526020600020906005020183600184610b6491906125be565b81548110610b9b577f4e487b7100000000000000000000000000000000000000000000000000000000600052603260045260246000fd5b9060005260206000209060050201600082015481600001556001820160009054906101000a900473ffffffffffffffffffffffffffffffffffffffff168160010160006101000a81548173ffffffffffffffffffffffffffffffffffffffff021916908373ffffffffffffffffffffffffffffffffffffffff1602179055506001820160149054906101000a900460ff168160010160146101000a81548160ff02191690836001811115610c78577f4e487b7100000000000000000000000000000000000000000000000000000000600052602160045260246000fd5b021790555060028201548160020155600382015481600301556004820154816004015590505080838381548110610cd8577f4e487b7100000000000000000000000000000000000000000000000000000000600052603260045260246000fd5b90600052602060002090600502016000820151816000015560208201518160010160006101000a81548173ffffffffffffffffffffffffffffffffffffffff021916908373ffffffffffffffffffffffffffffffffffffffff16021790555060408201518160010160146101000a81548160ff02191690836001811115610d88577f4e487b7100000000000000000000000000000000000000000000000000000000600052602160045260246000fd5b0217905550606082015181600201556080820151816003015560a082015181600401559050508180610db990612669565b925050506108f2565b611312565b600180811115610e00577f4e487b7100000000000000000000000000000000000000000000000000000000600052602160045260246000fd5b866001811115610e39577f4e487b7100000000000000000000000000000000000000000000000000000000600052602160045260246000fd5b1415611311575b600081111561131057818181548110610e82577f4e487b7100000000000000000000000000000000000000000000000000000000600052603260045260246000fd5b90600052602060002090600502016004015482600183610ea291906125be565b81548110610ed9577f4e487b7100000000000000000000000000000000000000000000000000000000600052603260045260246000fd5b9060005260206000209060050201600401541015610ef657611310565b600082600183610f0691906125be565b81548110610f3d577f4e487b7100000000000000000000000000000000000000000000000000000000600052603260045260246000fd5b90600052602060002090600502016040518060c0016040529081600082015481526020016001820160009054906101000a900473ffffffffffffffffffffffffffffffffffffffff1673ffffffffffffffffffffffffffffffffffffffff1673ffffffffffffffffffffffffffffffffffffffff1681526020016001820160149054906101000a900460ff166001811115611001577f4e487b7100000000000000000000000000000000000000000000000000000000600052602160045260246000fd5b6001811115611039577f4e487b7100000000000000000000000000000000000000000000000000000000600052602160045260246000fd5b815260200160028201548152602001600382015481526020016004820154815250509050828281548110611096577f4e487b7100000000000000000000000000000000000000000000000000000000600052603260045260246000fd5b9060005260206000209060050201836001846110b291906125be565b815481106110e9577f4e487b7100000000000000000000000000000000000000000000000000000000600052603260045260246000fd5b9060005260206000209060050201600082015481600001556001820160009054906101000a900473ffffffffffffffffffffffffffffffffffffffff168160010160006101000a81548173ffffffffffffffffffffffffffffffffffffffff021916908373ffffffffffffffffffffffffffffffffffffffff1602179055506001820160149054906101000a900460ff168160010160146101000a81548160ff021916908360018111156111c6577f4e487b7100000000000000000000000000000000000000000000000000000000600052602160045260246000fd5b021790555060028201548160020155600382015481600301556004820154816004015590505080838381548110611226577f4e487b7100000000000000000000000000000000000000000000000000000000600052603260045260246000fd5b90600052602060002090600502016000820151816000015560208201518160010160006101000a81548173ffffffffffffffffffffffffffffffffffffffff021916908373ffffffffffffffffffffffffffffffffffffffff16021790555060408201518160010160146101000a81548160ff021916908360018111156112d6577f4e487b7100000000000000000000000000000000000000000000000000000000600052602160045260246000fd5b0217905550606082015181600201556080820151816003015560a08201518160040155905050818061130790612669565b92505050610e40565b5b5b6005600081548092919061132590612693565b9190505550505050505050565b61133a611da1565b73ffffffffffffffffffffffffffffffffffffffff1661135861146c565b73ffffffffffffffffffffffffffffffffffffffff16146113ae576040517f08c379a00000000000000000000000000000000000000000000000000000000081526004016113a5906123e8565b60405180910390fd5b600073ffffffffffffffffffffffffffffffffffffffff1660008054906101000a900473ffffffffffffffffffffffffffffffffffffffff1673ffffffffffffffffffffffffffffffffffffffff167f8be0079c531659141344cd1fd0a4f28419497f9722a3daafe3b4186f6b6457e060405160405180910390a360008060006101000a81548173ffffffffffffffffffffffffffffffffffffffff021916908373ffffffffffffffffffffffffffffffffffffffff160217905550565b60008060009054906101000a900473ffffffffffffffffffffffffffffffffffffffff16905090565b61149d611da1565b73ffffffffffffffffffffffffffffffffffffffff166114bb61146c565b73ffffffffffffffffffffffffffffffffffffffff1614611511576040517f08c379a0000000000000000000000000000000000000000000000000000000008152600401611508906123e8565b60405180910390fd5b60405180604001604052808381526020018273ffffffffffffffffffffffffffffffffffffffff16815250600360008481526020019081526020016000206000820151816000015560208201518160010160006101000a81548173ffffffffffffffffffffffffffffffffffffffff021916908373ffffffffffffffffffffffffffffffffffffffff16021790555090505060018290806001815401808255809150506001900390600052602060002001600090919091909150555050565b600181815481106115e057600080fd5b906000526020600020016000915090505481565b80600073ffffffffffffffffffffffffffffffffffffffff166003600083815260200190815260200160002060010160009054906101000a900473ffffffffffffffffffffffffffffffffffffffff1673ffffffffffffffffffffffffffffffffffffffff16141561169b576040517f08c379a000000000000000000000000000000000000000000000000000000000815260040161169290612428565b60405180910390fd5b82600460003373ffffffffffffffffffffffffffffffffffffffff1673ffffffffffffffffffffffffffffffffffffffff168152602001908152602001600020600084815260200190815260200160002054101561172e576040517f08c379a000000000000000000000000000000000000000000000000000000000815260040161172590612408565b60405180910390fd5b82600460003373ffffffffffffffffffffffffffffffffffffffff1673ffffffffffffffffffffffffffffffffffffffff1681526020019081526020016000206000848152602001908152602001600020600082825461178e91906125be565b925050819055506003600083815260200190815260200160002060010160009054906101000a900473ffffffffffffffffffffffffffffffffffffffff1673ffffffffffffffffffffffffffffffffffffffff1663a9059cbb33856040518363ffffffff1660e01b8152600401611806929190612339565b602060405180830381600087803b15801561182057600080fd5b505af1158015611834573d6000803e3d6000fd5b505050506040513d601f19601f820116820180604052508101906118589190611e77565b50505050565b60606006600084815260200190815260200160002060008360018111156118ae577f4e487b7100000000000000000000000000000000000000000000000000000000600052602160045260246000fd5b8152602001908152602001600020805480602002602001604051908101604052809291908181526020016000905b82821015611a1357838290600052602060002090600502016040518060c0016040529081600082015481526020016001820160009054906101000a900473ffffffffffffffffffffffffffffffffffffffff1673ffffffffffffffffffffffffffffffffffffffff1673ffffffffffffffffffffffffffffffffffffffff1681526020016001820160149054906101000a900460ff1660018111156119aa577f4e487b7100000000000000000000000000000000000000000000000000000000600052602160045260246000fd5b60018111156119e2577f4e487b7100000000000000000000000000000000000000000000000000000000600052602160045260246000fd5b81526020016002820154815260200160038201548152602001600482015481525050815260200190600101906118dc565b50505050905092915050565b80600073ffffffffffffffffffffffffffffffffffffffff166003600083815260200190815260200160002060010160009054906101000a900473ffffffffffffffffffffffffffffffffffffffff1673ffffffffffffffffffffffffffffffffffffffff161415611ac6576040517f08c379a0000000000000000000000000000000000000000000000000000000008152600401611abd90612428565b60405180910390fd5b6003600083815260200190815260200160002060010160009054906101000a900473ffffffffffffffffffffffffffffffffffffffff1673ffffffffffffffffffffffffffffffffffffffff166323b872dd3330866040518463ffffffff1660e01b8152600401611b3993929190612302565b602060405180830381600087803b158015611b5357600080fd5b505af1158015611b67573d6000803e3d6000fd5b505050506040513d601f19601f82011682018060405250810190611b8b9190611e77565b5082600460003373ffffffffffffffffffffffffffffffffffffffff1673ffffffffffffffffffffffffffffffffffffffff16815260200190815260200160002060008481526020019081526020016000206000828254611bec919061250e565b92505081905550505050565b611c00611da1565b73ffffffffffffffffffffffffffffffffffffffff16611c1e61146c565b73ffffffffffffffffffffffffffffffffffffffff1614611c74576040517f08c379a0000000000000000000000000000000000000000000000000000000008152600401611c6b906123e8565b60405180910390fd5b600073ffffffffffffffffffffffffffffffffffffffff168173ffffffffffffffffffffffffffffffffffffffff161415611ce4576040517f08c379a0000000000000000000000000000000000000000000000000000000008152600401611cdb906123c8565b60405180910390fd5b8073ffffffffffffffffffffffffffffffffffffffff1660008054906101000a900473ffffffffffffffffffffffffffffffffffffffff1673ffffffffffffffffffffffffffffffffffffffff167f8be0079c531659141344cd1fd0a4f28419497f9722a3daafe3b4186f6b6457e060405160405180910390a3806000806101000a81548173ffffffffffffffffffffffffffffffffffffffff021916908373ffffffffffffffffffffffffffffffffffffffff16021790555050565b600033905090565b600081359050611db88161274e565b92915050565b600081519050611dcd81612765565b92915050565b600081359050611de28161277c565b92915050565b600081359050611df781612793565b92915050565b600081359050611e0c816127a3565b92915050565b600060208284031215611e2457600080fd5b6000611e3284828501611da9565b91505092915050565b60008060408385031215611e4e57600080fd5b6000611e5c85828601611da9565b9250506020611e6d85828601611dd3565b9150509250929050565b600060208284031215611e8957600080fd5b6000611e9784828501611dbe565b91505092915050565b600060208284031215611eb257600080fd5b6000611ec084828501611dd3565b91505092915050565b60008060408385031215611edc57600080fd5b6000611eea85828601611dd3565b9250506020611efb85828601611da9565b9150509250929050565b60008060408385031215611f1857600080fd5b6000611f2685828601611dd3565b9250506020611f3785828601611de8565b9150509250929050565b600080600060608486031215611f5657600080fd5b6000611f6486828701611dd3565b9350506020611f7586828701611dfd565b9250506040611f8686828701611dfd565b9150509250925092565b60008060008060808587031215611fa657600080fd5b6000611fb487828801611de8565b9450506020611fc587828801611dd3565b9350506040611fd687828801611dfd565b9250506060611fe787828801611dfd565b91505092959194509250565b60006020828403121561200557600080fd5b600061201384828501611dfd565b91505092915050565b6000806040838503121561202f57600080fd5b600061203d85828601611dfd565b925050602061204e85828601611dd3565b9150509250929050565b6000612064838361224e565b60c08301905092915050565b612079816125f2565b82525050565b612088816125f2565b82525050565b6000612099826124d4565b6120a381856124ec565b93506120ae836124c4565b8060005b838110156120df5781516120c68882612058565b97506120d1836124df565b9250506001810190506120b2565b5085935050505092915050565b6120f581612610565b82525050565b61210481612610565b82525050565b61211381612657565b82525050565b61212281612657565b82525050565b60006121356026836124fd565b91507f4f776e61626c653a206e6577206f776e657220697320746865207a65726f206160008301527f64647265737300000000000000000000000000000000000000000000000000006020830152604082019050919050565b600061219b6020836124fd565b91507f4f776e61626c653a2063616c6c6572206973206e6f7420746865206f776e65726000830152602082019050919050565b60006121db601d836124fd565b91507f4e6f7420656e6f756768206d6f6e657920746f2077697468647261772e0000006000830152602082019050919050565b600061221b601c836124fd565b91507f546f6b656e20646f65736e277420657869737420696e20546f66752e000000006000830152602082019050919050565b60c08201600082015161226460008501826122c9565b5060208201516122776020850182612070565b50604082015161228a604085018261210a565b50606082015161229d60608501826120ec565b5060808201516122b060808501826122c9565b5060a08201516122c360a08501826122c9565b50505050565b6122d28161264d565b82525050565b6122e18161264d565b82525050565b60006020820190506122fc600083018461207f565b92915050565b6000606082019050612317600083018661207f565b612324602083018561207f565b61233160408301846122d8565b949350505050565b600060408201905061234e600083018561207f565b61235b60208301846122d8565b9392505050565b6000602082019050818103600083015261237c818461208e565b905092915050565b600060208201905061239960008301846120fb565b92915050565b60006040820190506123b460008301856120fb565b6123c1602083018461207f565b9392505050565b600060208201905081810360008301526123e181612128565b9050919050565b600060208201905081810360008301526124018161218e565b9050919050565b60006020820190508181036000830152612421816121ce565b9050919050565b600060208201905081810360008301526124418161220e565b9050919050565b600060208201905061245d60008301846122d8565b92915050565b600060c08201905061247860008301896122d8565b612485602083018861207f565b6124926040830187612119565b61249f60608301866120fb565b6124ac60808301856122d8565b6124b960a08301846122d8565b979650505050505050565b6000819050602082019050919050565b600081519050919050565b6000602082019050919050565b600082825260208201905092915050565b600082825260208201905092915050565b60006125198261264d565b91506125248361264d565b9250827fffffffffffffffffffffffffffffffffffffffffffffffffffffffffffffffff03821115612559576125586126dc565b5b828201905092915050565b600061256f8261264d565b915061257a8361264d565b9250817fffffffffffffffffffffffffffffffffffffffffffffffffffffffffffffffff04831182151516156125b3576125b26126dc565b5b828202905092915050565b60006125c98261264d565b91506125d48361264d565b9250828210156125e7576125e66126dc565b5b828203905092915050565b60006125fd8261262d565b9050919050565b60008115159050919050565b6000819050919050565b60008190506126288261273a565b919050565b600073ffffffffffffffffffffffffffffffffffffffff82169050919050565b6000819050919050565b60006126628261261a565b9050919050565b60006126748261264d565b91506000821415612688576126876126dc565b5b600182039050919050565b600061269e8261264d565b91507fffffffffffffffffffffffffffffffffffffffffffffffffffffffffffffffff8214156126d1576126d06126dc565b5b600182019050919050565b7f4e487b7100000000000000000000000000000000000000000000000000000000600052601160045260246000fd5b7f4e487b7100000000000000000000000000000000000000000000000000000000600052602160045260246000fd5b6002811061274b5761274a61270b565b5b50565b612757816125f2565b811461276257600080fd5b50565b61276e81612604565b811461277957600080fd5b50565b61278581612610565b811461279057600080fd5b50565b600281106127a057600080fd5b50565b6127ac8161264d565b81146127b757600080fd5b5056fea2646970667358221220c16c81c3e60a66bc10ded72f794b52166c1ab27b2a10727e8de98b4a0dd66db664736f6c63430008000033",
  "immutableReferences": {},
  "source": "// SPDX-License-Identifier: MIT\npragma solidity ^0.8.0;\n\nimport \"./Wallet.sol\";\n\n\ncontract Dex is Wallet {\n\n    enum Side {\n        BUY,\n        SELL\n    }\n\n    struct Order {\n        uint id;\n        address trader;\n        Side side;\n        bytes32 ticker;\n        uint amount;\n        uint price;\n    }\n\n    uint nextOrderId;\n\n    mapping(bytes32 => mapping(uint => Order[])) public orderBook; // uint is for the side\n\n    function getOrderBook(bytes32 ticker, Side side) view public returns(Order[] memory){\n        return orderBook[ticker][uint(side)];\n    }\n\n    // function getOrderInfo (bytes32 i, uint j) public pure returns (uint id_, address trader_, bool buyOrder_, bytes32 ticker_, uint amount_, uint price_){\n    //     return (orderBook[i][j].id, orderBook[i][j].trader, orderBook[i][j].buyOrder, orderBook[i][j].ticker, orderBook[i][j].amount, orderBook[i][j].price);\n    // }\n\n    function createLimitOrder(Side _side, bytes32 _ticker, uint _amount, uint _price) public {\n        if(_side == Side.BUY){\n            require(weiBalances[msg.sender] >= _amount * _price);\n        }\n\n        if(_side == Side.SELL){\n            require(balances[msg.sender][_ticker] >= _amount);\n        }\n\n        Order[] storage orders = orderBook[_ticker][uint(_side)];\n\n        orders.push(\n            Order(nextOrderId, msg.sender, _side, _ticker, _amount, _price)\n        );\n\n        // Bubble sort\n\n        uint j = orders.length > 0 ? orders.length-1 : 0;\n\n        if(_side == Side.BUY){\n            while(j > 0){\n                if(orders[j-1].price > orders[j].price){\n                    break;\n                }\n                Order memory o = orders[j-1];\n                orders[j-1] = orders[j];\n                orders[j] = o;\n                j--;\n            }\n        } else if(_side == Side.SELL){\n            while(j>0){\n                if(orders[j-1].price < orders[j].price){\n                    break;\n                }\n                Order memory o = orders[j-1];\n                orders[j-1] = orders[j];\n                orders[j] = o;\n                j--;\n            }\n        }\n        // if(_side == Side.BUY){\n        //     for(uint i = orders.length -1; i >= 0; i--){\n        //         if(orders[i].side == Side.BUY && orders[i].price < orders[i-1].price){\n        //             Order memory a = orders[i];\n        //             orders[i] = orders[i-1];\n        //             orders[i-1] = a;\n        //         }\n        //     }\n        // } else if (_side == Side.SELL) {\n        //     for(uint i = orders.length -1; i > 0; i--){\n        //         if(orders[i].side == Side.BUY || orders[i].price > orders[i+1].price){\n        //             Order memory a = orders[i];\n        //             orders[i] = orders[i-1];\n        //             orders[i-1] = a;\n        //         }\n        //     }\n        // }\n\n        nextOrderId++;\n\n    }\n\n}",
  "sourcePath": "/Users/solaris/Workspace/SolidityWS/TofuDEX/contracts/Dex.sol",
  "compiler": {
    "name": "solc",
    "version": "0.8.0+commit.c7dfd78e.Emscripten.clang"
  },
  "schemaVersion": "3.3.4",
  "updatedAt": "2021-04-26T08:45:05.823Z",
  "devdoc": {
    "kind": "dev",
    "methods": {
      "owner()": {
        "details": "Returns the address of the current owner."
      },
      "renounceOwnership()": {
        "details": "Leaves the contract without owner. It will not be possible to call `onlyOwner` functions anymore. Can only be called by the current owner. NOTE: Renouncing ownership will leave the contract without an owner, thereby removing any functionality that is only available to the owner."
      },
      "transferOwnership(address)": {
        "details": "Transfers ownership of the contract to a new account (`newOwner`). Can only be called by the current owner."
      }
    },
    "version": 1
  },
  "userdoc": {
    "kind": "user",
    "methods": {},
    "version": 1
  }
}