{
  "contractName": "Wallet",
  "abi": [
    {
      "anonymous": false,
      "inputs": [
        {
          "indexed": true,
          "internalType": "address",
          "name": "previousOwner",
          "type": "address"
        },
        {
          "indexed": true,
          "internalType": "address",
          "name": "newOwner",
          "type": "address"
        }
      ],
      "name": "OwnershipTransferred",
      "type": "event"
    },
    {
      "inputs": [
        {
          "internalType": "address",
          "name": "",
          "type": "address"
        },
        {
          "internalType": "bytes32",
          "name": "",
          "type": "bytes32"
        }
      ],
      "name": "balances",
      "outputs": [
        {
          "internalType": "uint256",
          "name": "",
          "type": "uint256"
        }
      ],
      "stateMutability": "view",
      "type": "function"
    },
    {
      "inputs": [],
      "name": "owner",
      "outputs": [
        {
          "internalType": "address",
          "name": "",
          "type": "address"
        }
      ],
      "stateMutability": "view",
      "type": "function"
    },
    {
      "inputs": [],
      "name": "renounceOwnership",
      "outputs": [],
      "stateMutability": "nonpayable",
      "type": "function"
    },
    {
      "inputs": [
        {
          "internalType": "uint256",
          "name": "",
          "type": "uint256"
        }
      ],
      "name": "tokenList",
      "outputs": [
        {
          "internalType": "bytes32",
          "name": "",
          "type": "bytes32"
        }
      ],
      "stateMutability": "view",
      "type": "function"
    },
    {
      "inputs": [
        {
          "internalType": "bytes32",
          "name": "",
          "type": "bytes32"
        }
      ],
      "name": "tokenMapping",
      "outputs": [
        {
          "internalType": "bytes32",
          "name": "ticker",
          "type": "bytes32"
        },
        {
          "internalType": "address",
          "name": "tokenAddress",
          "type": "address"
        }
      ],
      "stateMutability": "view",
      "type": "function"
    },
    {
      "inputs": [
        {
          "internalType": "address",
          "name": "newOwner",
          "type": "address"
        }
      ],
      "name": "transferOwnership",
      "outputs": [],
      "stateMutability": "nonpayable",
      "type": "function"
    },
    {
      "inputs": [
        {
          "internalType": "address",
          "name": "",
          "type": "address"
        }
      ],
      "name": "weiBalances",
      "outputs": [
        {
          "internalType": "uint256",
          "name": "",
          "type": "uint256"
        }
      ],
      "stateMutability": "view",
      "type": "function"
    },
    {
      "inputs": [
        {
          "internalType": "bytes32",
          "name": "_ticker",
          "type": "bytes32"
        },
        {
          "internalType": "address",
          "name": "_tokenAddress",
          "type": "address"
        }
      ],
      "name": "addToken",
      "outputs": [],
      "stateMutability": "nonpayable",
      "type": "function"
    },
    {
      "inputs": [
        {
          "internalType": "uint256",
          "name": "_amount",
          "type": "uint256"
        },
        {
          "internalType": "bytes32",
          "name": "_ticker",
          "type": "bytes32"
        }
      ],
      "name": "depositToken",
      "outputs": [],
      "stateMutability": "nonpayable",
      "type": "function"
    },
    {
      "inputs": [],
      "name": "depositWei",
      "outputs": [],
      "stateMutability": "payable",
      "type": "function"
    },
    {
      "inputs": [
        {
          "internalType": "uint256",
          "name": "_amount",
          "type": "uint256"
        },
        {
          "internalType": "bytes32",
          "name": "_ticker",
          "type": "bytes32"
        }
      ],
      "name": "withdraw",
      "outputs": [],
      "stateMutability": "nonpayable",
      "type": "function"
    },
    {
      "inputs": [
        {
          "internalType": "bytes32",
          "name": "_ticker",
          "type": "bytes32"
        }
      ],
      "name": "getTokenBalance",
      "outputs": [
        {
          "internalType": "uint256",
          "name": "",
          "type": "uint256"
        }
      ],
      "stateMutability": "view",
      "type": "function"
    },
    {
      "inputs": [],
      "name": "getWeiBalance",
      "outputs": [
        {
          "internalType": "uint256",
          "name": "",
          "type": "uint256"
        }
      ],
      "stateMutability": "view",
      "type": "function"
    }
  ],
  "bytecode": "0x608060405234801561001057600080fd5b5060006100216100c460201b60201c565b9050806000806101000a81548173ffffffffffffffffffffffffffffffffffffffff021916908373ffffffffffffffffffffffffffffffffffffffff1602179055508073ffffffffffffffffffffffffffffffffffffffff16600073ffffffffffffffffffffffffffffffffffffffff167f8be0079c531659141344cd1fd0a4f28419497f9722a3daafe3b4186f6b6457e060405160405180910390a3506100cc565b600033905090565b61134b806100db6000396000f3fe6080604052600436106100c25760003560e01c80638da5cb5b1161007f578063a8d2021a11610059578063a8d2021a1461026e578063b63ed40514610297578063c1612c44146102c2578063f2fde38b146102eb576100c2565b80638da5cb5b146101dd5780639776aacf146102085780639ead722214610231576100c2565b806315488b88146100c75780631f14df69146100d1578063667cb4ba1461010e5780636ef9e1451461014c578063715018a61461018957806388db6ac6146101a0575b600080fd5b6100cf610314565b005b3480156100dd57600080fd5b506100f860048036038101906100f39190610dc1565b61036c565b6040516101059190611182565b60405180910390f35b34801561011a57600080fd5b5061013560048036038101906101309190610e26565b610391565b6040516101439291906110d9565b60405180910390f35b34801561015857600080fd5b50610173600480360381019061016e9190610d98565b6103d5565b6040516101809190611182565b60405180910390f35b34801561019557600080fd5b5061019e6103ed565b005b3480156101ac57600080fd5b506101c760048036038101906101c29190610e26565b610527565b6040516101d49190611182565b60405180910390f35b3480156101e957600080fd5b506101f2610581565b6040516101ff9190611043565b60405180910390f35b34801561021457600080fd5b5061022f600480360381019061022a9190610e4f565b6105aa565b005b34801561023d57600080fd5b5061025860048036038101906102539190610e8b565b6106e5565b60405161026591906110be565b60405180910390f35b34801561027a57600080fd5b5061029560048036038101906102909190610eb4565b610709565b005b3480156102a357600080fd5b506102ac610973565b6040516102b99190611182565b60405180910390f35b3480156102ce57600080fd5b506102e960048036038101906102e49190610eb4565b6109ba565b005b3480156102f757600080fd5b50610312600480360381019061030d9190610d98565b610b93565b005b34600460003373ffffffffffffffffffffffffffffffffffffffff1673ffffffffffffffffffffffffffffffffffffffff168152602001908152602001600020600082825461036391906111ae565b92505081905550565b6003602052816000526040600020602052806000526040600020600091509150505481565b60026020528060005260406000206000915090508060000154908060010160009054906101000a900473ffffffffffffffffffffffffffffffffffffffff16905082565b60046020528060005260406000206000915090505481565b6103f5610d3c565b73ffffffffffffffffffffffffffffffffffffffff16610413610581565b73ffffffffffffffffffffffffffffffffffffffff1614610469576040517f08c379a000000000000000000000000000000000000000000000000000000000815260040161046090611122565b60405180910390fd5b600073ffffffffffffffffffffffffffffffffffffffff1660008054906101000a900473ffffffffffffffffffffffffffffffffffffffff1673ffffffffffffffffffffffffffffffffffffffff167f8be0079c531659141344cd1fd0a4f28419497f9722a3daafe3b4186f6b6457e060405160405180910390a360008060006101000a81548173ffffffffffffffffffffffffffffffffffffffff021916908373ffffffffffffffffffffffffffffffffffffffff160217905550565b6000600360003373ffffffffffffffffffffffffffffffffffffffff1673ffffffffffffffffffffffffffffffffffffffff1681526020019081526020016000206000838152602001908152602001600020549050919050565b60008060009054906101000a900473ffffffffffffffffffffffffffffffffffffffff16905090565b6105b2610d3c565b73ffffffffffffffffffffffffffffffffffffffff166105d0610581565b73ffffffffffffffffffffffffffffffffffffffff1614610626576040517f08c379a000000000000000000000000000000000000000000000000000000000815260040161061d90611122565b60405180910390fd5b60405180604001604052808381526020018273ffffffffffffffffffffffffffffffffffffffff16815250600260008481526020019081526020016000206000820151816000015560208201518160010160006101000a81548173ffffffffffffffffffffffffffffffffffffffff021916908373ffffffffffffffffffffffffffffffffffffffff16021790555090505060018290806001815401808255809150506001900390600052602060002001600090919091909150555050565b600181815481106106f557600080fd5b906000526020600020016000915090505481565b80600073ffffffffffffffffffffffffffffffffffffffff166002600083815260200190815260200160002060010160009054906101000a900473ffffffffffffffffffffffffffffffffffffffff1673ffffffffffffffffffffffffffffffffffffffff1614156107b0576040517f08c379a00000000000000000000000000000000000000000000000000000000081526004016107a790611162565b60405180910390fd5b82600360003373ffffffffffffffffffffffffffffffffffffffff1673ffffffffffffffffffffffffffffffffffffffff1681526020019081526020016000206000848152602001908152602001600020541015610843576040517f08c379a000000000000000000000000000000000000000000000000000000000815260040161083a90611142565b60405180910390fd5b82600360003373ffffffffffffffffffffffffffffffffffffffff1673ffffffffffffffffffffffffffffffffffffffff168152602001908152602001600020600084815260200190815260200160002060008282546108a39190611204565b925050819055506002600083815260200190815260200160002060010160009054906101000a900473ffffffffffffffffffffffffffffffffffffffff1673ffffffffffffffffffffffffffffffffffffffff1663a9059cbb33856040518363ffffffff1660e01b815260040161091b929190611095565b602060405180830381600087803b15801561093557600080fd5b505af1158015610949573d6000803e3d6000fd5b505050506040513d601f19601f8201168201806040525081019061096d9190610dfd565b50505050565b6000600460003373ffffffffffffffffffffffffffffffffffffffff1673ffffffffffffffffffffffffffffffffffffffff16815260200190815260200160002054905090565b80600073ffffffffffffffffffffffffffffffffffffffff166002600083815260200190815260200160002060010160009054906101000a900473ffffffffffffffffffffffffffffffffffffffff1673ffffffffffffffffffffffffffffffffffffffff161415610a61576040517f08c379a0000000000000000000000000000000000000000000000000000000008152600401610a5890611162565b60405180910390fd5b6002600083815260200190815260200160002060010160009054906101000a900473ffffffffffffffffffffffffffffffffffffffff1673ffffffffffffffffffffffffffffffffffffffff166323b872dd3330866040518463ffffffff1660e01b8152600401610ad49392919061105e565b602060405180830381600087803b158015610aee57600080fd5b505af1158015610b02573d6000803e3d6000fd5b505050506040513d601f19601f82011682018060405250810190610b269190610dfd565b5082600360003373ffffffffffffffffffffffffffffffffffffffff1673ffffffffffffffffffffffffffffffffffffffff16815260200190815260200160002060008481526020019081526020016000206000828254610b8791906111ae565b92505081905550505050565b610b9b610d3c565b73ffffffffffffffffffffffffffffffffffffffff16610bb9610581565b73ffffffffffffffffffffffffffffffffffffffff1614610c0f576040517f08c379a0000000000000000000000000000000000000000000000000000000008152600401610c0690611122565b60405180910390fd5b600073ffffffffffffffffffffffffffffffffffffffff168173ffffffffffffffffffffffffffffffffffffffff161415610c7f576040517f08c379a0000000000000000000000000000000000000000000000000000000008152600401610c7690611102565b60405180910390fd5b8073ffffffffffffffffffffffffffffffffffffffff1660008054906101000a900473ffffffffffffffffffffffffffffffffffffffff1673ffffffffffffffffffffffffffffffffffffffff167f8be0079c531659141344cd1fd0a4f28419497f9722a3daafe3b4186f6b6457e060405160405180910390a3806000806101000a81548173ffffffffffffffffffffffffffffffffffffffff021916908373ffffffffffffffffffffffffffffffffffffffff16021790555050565b600033905090565b600081359050610d53816112b9565b92915050565b600081519050610d68816112d0565b92915050565b600081359050610d7d816112e7565b92915050565b600081359050610d92816112fe565b92915050565b600060208284031215610daa57600080fd5b6000610db884828501610d44565b91505092915050565b60008060408385031215610dd457600080fd5b6000610de285828601610d44565b9250506020610df385828601610d6e565b9150509250929050565b600060208284031215610e0f57600080fd5b6000610e1d84828501610d59565b91505092915050565b600060208284031215610e3857600080fd5b6000610e4684828501610d6e565b91505092915050565b60008060408385031215610e6257600080fd5b6000610e7085828601610d6e565b9250506020610e8185828601610d44565b9150509250929050565b600060208284031215610e9d57600080fd5b6000610eab84828501610d83565b91505092915050565b60008060408385031215610ec757600080fd5b6000610ed585828601610d83565b9250506020610ee685828601610d6e565b9150509250929050565b610ef981611238565b82525050565b610f0881611256565b82525050565b6000610f1b60268361119d565b91507f4f776e61626c653a206e6577206f776e657220697320746865207a65726f206160008301527f64647265737300000000000000000000000000000000000000000000000000006020830152604082019050919050565b6000610f8160208361119d565b91507f4f776e61626c653a2063616c6c6572206973206e6f7420746865206f776e65726000830152602082019050919050565b6000610fc1601d8361119d565b91507f4e6f7420656e6f756768206d6f6e657920746f2077697468647261772e0000006000830152602082019050919050565b6000611001601c8361119d565b91507f546f6b656e20646f65736e277420657869737420696e20546f66752e000000006000830152602082019050919050565b61103d81611280565b82525050565b60006020820190506110586000830184610ef0565b92915050565b60006060820190506110736000830186610ef0565b6110806020830185610ef0565b61108d6040830184611034565b949350505050565b60006040820190506110aa6000830185610ef0565b6110b76020830184611034565b9392505050565b60006020820190506110d36000830184610eff565b92915050565b60006040820190506110ee6000830185610eff565b6110fb6020830184610ef0565b9392505050565b6000602082019050818103600083015261111b81610f0e565b9050919050565b6000602082019050818103600083015261113b81610f74565b9050919050565b6000602082019050818103600083015261115b81610fb4565b9050919050565b6000602082019050818103600083015261117b81610ff4565b9050919050565b60006020820190506111976000830184611034565b92915050565b600082825260208201905092915050565b60006111b982611280565b91506111c483611280565b9250827fffffffffffffffffffffffffffffffffffffffffffffffffffffffffffffffff038211156111f9576111f861128a565b5b828201905092915050565b600061120f82611280565b915061121a83611280565b92508282101561122d5761122c61128a565b5b828203905092915050565b600061124382611260565b9050919050565b60008115159050919050565b6000819050919050565b600073ffffffffffffffffffffffffffffffffffffffff82169050919050565b6000819050919050565b7f4e487b7100000000000000000000000000000000000000000000000000000000600052601160045260246000fd5b6112c281611238565b81146112cd57600080fd5b50565b6112d98161124a565b81146112e457600080fd5b50565b6112f081611256565b81146112fb57600080fd5b50565b61130781611280565b811461131257600080fd5b5056fea2646970667358221220089974792d9825625abdb2149aaba933fb164c977de50097dd946de7c9b0f47d64736f6c63430008000033",
  "immutableReferences": {},
  "source": "// SPDX-License-Identifier: MIT\n/**\n * @author Nes B.\n * @dev Wallet implementation for TofuDEX.\n */\n\npragma solidity ^0.8.0;\n\nimport \"../node_modules/@openzeppelin/contracts/token/ERC20/IERC20.sol/\";\nimport \"../node_modules/@openzeppelin/contracts/access/Ownable.sol/\";\n\ncontract Wallet is Ownable {\n\n    struct Token {\n        bytes32 ticker;\n        address tokenAddress;\n    }\n\n    bytes32[] public tokenList;\n\n    mapping(bytes32 => Token) public tokenMapping;\n    mapping(address => mapping(bytes32 => uint)) public balances;\n    mapping (address => uint) public weiBalances;\n\n    modifier isToken(bytes32 _ticker) {\n        require(tokenMapping[_ticker].tokenAddress != address(0), \"Token doesn't exist in Tofu.\");\n        _;\n    }\n\n    function addToken(bytes32 _ticker, address _tokenAddress) external onlyOwner {\n        tokenMapping[_ticker] = Token(_ticker, _tokenAddress);\n        tokenList.push(_ticker);\n    }\n\n    function depositToken(uint _amount, bytes32 _ticker) external isToken(_ticker) {\n        IERC20(tokenMapping[_ticker].tokenAddress).transferFrom(msg.sender, address(this), _amount);\n        balances[msg.sender][_ticker] += _amount;\n    }\n\n    function depositWei() public payable {\n        weiBalances[msg.sender] += msg.value;\n    }\n\n    function withdraw(uint _amount, bytes32 _ticker) external isToken(_ticker) {\n        require(balances[msg.sender][_ticker] >= _amount, \"Not enough money to withdraw.\");\n        balances[msg.sender][_ticker] -= _amount;\n        IERC20(tokenMapping[_ticker].tokenAddress).transfer(msg.sender,_amount);\n    }\n\n    function getTokenBalance(bytes32 _ticker) public view returns (uint) {\n        return balances[msg.sender][_ticker];\n    }\n\n    function getWeiBalance() public view returns (uint){\n        return weiBalances[msg.sender];\n    }\n}\n\n",
  "sourcePath": "/Users/solaris/Workspace/SolidityWS/TofuDEX/contracts/Wallet.sol",
  "compiler": {
    "name": "solc",
    "version": "0.8.0+commit.c7dfd78e.Emscripten.clang"
  },
  "schemaVersion": "3.3.4",
  "updatedAt": "2021-04-28T07:42:52.896Z",
  "devdoc": {
    "kind": "dev",
    "methods": {
      "owner()": {
        "details": "Returns the address of the current owner."
      },
      "renounceOwnership()": {
        "details": "Leaves the contract without owner. It will not be possible to call `onlyOwner` functions anymore. Can only be called by the current owner. NOTE: Renouncing ownership will leave the contract without an owner, thereby removing any functionality that is only available to the owner."
      },
      "transferOwnership(address)": {
        "details": "Transfers ownership of the contract to a new account (`newOwner`). Can only be called by the current owner."
      }
    },
    "version": 1
  },
  "userdoc": {
    "kind": "user",
    "methods": {},
    "version": 1
  }
}