{
  "contractName": "Wallet",
  "abi": [
    {
      "anonymous": false,
      "inputs": [
        {
          "indexed": true,
          "internalType": "address",
          "name": "previousOwner",
          "type": "address"
        },
        {
          "indexed": true,
          "internalType": "address",
          "name": "newOwner",
          "type": "address"
        }
      ],
      "name": "OwnershipTransferred",
      "type": "event"
    },
    {
      "inputs": [
        {
          "internalType": "address",
          "name": "",
          "type": "address"
        },
        {
          "internalType": "bytes32",
          "name": "",
          "type": "bytes32"
        }
      ],
      "name": "balances",
      "outputs": [
        {
          "internalType": "uint256",
          "name": "",
          "type": "uint256"
        }
      ],
      "stateMutability": "view",
      "type": "function"
    },
    {
      "inputs": [],
      "name": "owner",
      "outputs": [
        {
          "internalType": "address",
          "name": "",
          "type": "address"
        }
      ],
      "stateMutability": "view",
      "type": "function"
    },
    {
      "inputs": [],
      "name": "renounceOwnership",
      "outputs": [],
      "stateMutability": "nonpayable",
      "type": "function"
    },
    {
      "inputs": [
        {
          "internalType": "uint256",
          "name": "",
          "type": "uint256"
        }
      ],
      "name": "tokenList",
      "outputs": [
        {
          "internalType": "bytes32",
          "name": "",
          "type": "bytes32"
        }
      ],
      "stateMutability": "view",
      "type": "function"
    },
    {
      "inputs": [
        {
          "internalType": "bytes32",
          "name": "",
          "type": "bytes32"
        }
      ],
      "name": "tokenMapping",
      "outputs": [
        {
          "internalType": "bytes32",
          "name": "ticker",
          "type": "bytes32"
        },
        {
          "internalType": "address",
          "name": "tokenAddress",
          "type": "address"
        }
      ],
      "stateMutability": "view",
      "type": "function"
    },
    {
      "inputs": [
        {
          "internalType": "address",
          "name": "newOwner",
          "type": "address"
        }
      ],
      "name": "transferOwnership",
      "outputs": [],
      "stateMutability": "nonpayable",
      "type": "function"
    },
    {
      "inputs": [
        {
          "internalType": "address",
          "name": "",
          "type": "address"
        }
      ],
      "name": "weiBalances",
      "outputs": [
        {
          "internalType": "uint256",
          "name": "",
          "type": "uint256"
        }
      ],
      "stateMutability": "view",
      "type": "function"
    },
    {
      "inputs": [
        {
          "internalType": "bytes32",
          "name": "_ticker",
          "type": "bytes32"
        },
        {
          "internalType": "address",
          "name": "_tokenAddress",
          "type": "address"
        }
      ],
      "name": "addToken",
      "outputs": [],
      "stateMutability": "nonpayable",
      "type": "function"
    },
    {
      "inputs": [
        {
          "internalType": "uint256",
          "name": "_amount",
          "type": "uint256"
        },
        {
          "internalType": "bytes32",
          "name": "_ticker",
          "type": "bytes32"
        }
      ],
      "name": "deposit",
      "outputs": [],
      "stateMutability": "nonpayable",
      "type": "function"
    },
    {
      "inputs": [
        {
          "internalType": "uint256",
          "name": "_amount",
          "type": "uint256"
        }
      ],
      "name": "depositWei",
      "outputs": [],
      "stateMutability": "payable",
      "type": "function"
    },
    {
      "inputs": [
        {
          "internalType": "uint256",
          "name": "_amount",
          "type": "uint256"
        },
        {
          "internalType": "bytes32",
          "name": "_ticker",
          "type": "bytes32"
        }
      ],
      "name": "withdraw",
      "outputs": [],
      "stateMutability": "nonpayable",
      "type": "function"
    }
  ],
  "bytecode": "0x608060405234801561001057600080fd5b5060006100216100c460201b60201c565b9050806000806101000a81548173ffffffffffffffffffffffffffffffffffffffff021916908373ffffffffffffffffffffffffffffffffffffffff1602179055508073ffffffffffffffffffffffffffffffffffffffff16600073ffffffffffffffffffffffffffffffffffffffff167f8be0079c531659141344cd1fd0a4f28419497f9722a3daafe3b4186f6b6457e060405160405180910390a3506100cc565b600033905090565b61122f806100db6000396000f3fe60806040526004361061009c5760003560e01c80639776aacf116100645780639776aacf1461019b5780639ead7222146101c4578063a3f81da014610201578063a8d2021a1461021d578063c9630cb014610246578063f2fde38b1461026f5761009c565b80631f14df69146100a1578063667cb4ba146100de5780636ef9e1451461011c578063715018a6146101595780638da5cb5b14610170575b600080fd5b3480156100ad57600080fd5b506100c860048036038101906100c39190610ca5565b610298565b6040516100d59190611066565b60405180910390f35b3480156100ea57600080fd5b5061010560048036038101906101009190610d0a565b6102bd565b604051610113929190610fbd565b60405180910390f35b34801561012857600080fd5b50610143600480360381019061013e9190610c7c565b610301565b6040516101509190611066565b60405180910390f35b34801561016557600080fd5b5061016e610319565b005b34801561017c57600080fd5b50610185610453565b6040516101929190610f27565b60405180910390f35b3480156101a757600080fd5b506101c260048036038101906101bd9190610d33565b61047c565b005b3480156101d057600080fd5b506101eb60048036038101906101e69190610d6f565b6105b7565b6040516101f89190610fa2565b60405180910390f35b61021b60048036038101906102169190610d6f565b6105db565b005b34801561022957600080fd5b50610244600480360381019061023f9190610d98565b610634565b005b34801561025257600080fd5b5061026d60048036038101906102689190610d98565b61089e565b005b34801561027b57600080fd5b5061029660048036038101906102919190610c7c565b610a77565b005b6004602052816000526040600020602052806000526040600020600091509150505481565b60036020528060005260406000206000915090508060000154908060010160009054906101000a900473ffffffffffffffffffffffffffffffffffffffff16905082565b60026020528060005260406000206000915090505481565b610321610c20565b73ffffffffffffffffffffffffffffffffffffffff1661033f610453565b73ffffffffffffffffffffffffffffffffffffffff1614610395576040517f08c379a000000000000000000000000000000000000000000000000000000000815260040161038c90611006565b60405180910390fd5b600073ffffffffffffffffffffffffffffffffffffffff1660008054906101000a900473ffffffffffffffffffffffffffffffffffffffff1673ffffffffffffffffffffffffffffffffffffffff167f8be0079c531659141344cd1fd0a4f28419497f9722a3daafe3b4186f6b6457e060405160405180910390a360008060006101000a81548173ffffffffffffffffffffffffffffffffffffffff021916908373ffffffffffffffffffffffffffffffffffffffff160217905550565b60008060009054906101000a900473ffffffffffffffffffffffffffffffffffffffff16905090565b610484610c20565b73ffffffffffffffffffffffffffffffffffffffff166104a2610453565b73ffffffffffffffffffffffffffffffffffffffff16146104f8576040517f08c379a00000000000000000000000000000000000000000000000000000000081526004016104ef90611006565b60405180910390fd5b60405180604001604052808381526020018273ffffffffffffffffffffffffffffffffffffffff16815250600360008481526020019081526020016000206000820151816000015560208201518160010160006101000a81548173ffffffffffffffffffffffffffffffffffffffff021916908373ffffffffffffffffffffffffffffffffffffffff16021790555090505060018290806001815401808255809150506001900390600052602060002001600090919091909150555050565b600181815481106105c757600080fd5b906000526020600020016000915090505481565b80600260003373ffffffffffffffffffffffffffffffffffffffff1673ffffffffffffffffffffffffffffffffffffffff168152602001908152602001600020600082825461062a9190611092565b9250508190555050565b80600073ffffffffffffffffffffffffffffffffffffffff166003600083815260200190815260200160002060010160009054906101000a900473ffffffffffffffffffffffffffffffffffffffff1673ffffffffffffffffffffffffffffffffffffffff1614156106db576040517f08c379a00000000000000000000000000000000000000000000000000000000081526004016106d290611046565b60405180910390fd5b82600460003373ffffffffffffffffffffffffffffffffffffffff1673ffffffffffffffffffffffffffffffffffffffff168152602001908152602001600020600084815260200190815260200160002054101561076e576040517f08c379a000000000000000000000000000000000000000000000000000000000815260040161076590611026565b60405180910390fd5b82600460003373ffffffffffffffffffffffffffffffffffffffff1673ffffffffffffffffffffffffffffffffffffffff168152602001908152602001600020600084815260200190815260200160002060008282546107ce91906110e8565b925050819055506003600083815260200190815260200160002060010160009054906101000a900473ffffffffffffffffffffffffffffffffffffffff1673ffffffffffffffffffffffffffffffffffffffff1663a9059cbb33856040518363ffffffff1660e01b8152600401610846929190610f79565b602060405180830381600087803b15801561086057600080fd5b505af1158015610874573d6000803e3d6000fd5b505050506040513d601f19601f820116820180604052508101906108989190610ce1565b50505050565b80600073ffffffffffffffffffffffffffffffffffffffff166003600083815260200190815260200160002060010160009054906101000a900473ffffffffffffffffffffffffffffffffffffffff1673ffffffffffffffffffffffffffffffffffffffff161415610945576040517f08c379a000000000000000000000000000000000000000000000000000000000815260040161093c90611046565b60405180910390fd5b6003600083815260200190815260200160002060010160009054906101000a900473ffffffffffffffffffffffffffffffffffffffff1673ffffffffffffffffffffffffffffffffffffffff166323b872dd3330866040518463ffffffff1660e01b81526004016109b893929190610f42565b602060405180830381600087803b1580156109d257600080fd5b505af11580156109e6573d6000803e3d6000fd5b505050506040513d601f19601f82011682018060405250810190610a0a9190610ce1565b5082600460003373ffffffffffffffffffffffffffffffffffffffff1673ffffffffffffffffffffffffffffffffffffffff16815260200190815260200160002060008481526020019081526020016000206000828254610a6b9190611092565b92505081905550505050565b610a7f610c20565b73ffffffffffffffffffffffffffffffffffffffff16610a9d610453565b73ffffffffffffffffffffffffffffffffffffffff1614610af3576040517f08c379a0000000000000000000000000000000000000000000000000000000008152600401610aea90611006565b60405180910390fd5b600073ffffffffffffffffffffffffffffffffffffffff168173ffffffffffffffffffffffffffffffffffffffff161415610b63576040517f08c379a0000000000000000000000000000000000000000000000000000000008152600401610b5a90610fe6565b60405180910390fd5b8073ffffffffffffffffffffffffffffffffffffffff1660008054906101000a900473ffffffffffffffffffffffffffffffffffffffff1673ffffffffffffffffffffffffffffffffffffffff167f8be0079c531659141344cd1fd0a4f28419497f9722a3daafe3b4186f6b6457e060405160405180910390a3806000806101000a81548173ffffffffffffffffffffffffffffffffffffffff021916908373ffffffffffffffffffffffffffffffffffffffff16021790555050565b600033905090565b600081359050610c378161119d565b92915050565b600081519050610c4c816111b4565b92915050565b600081359050610c61816111cb565b92915050565b600081359050610c76816111e2565b92915050565b600060208284031215610c8e57600080fd5b6000610c9c84828501610c28565b91505092915050565b60008060408385031215610cb857600080fd5b6000610cc685828601610c28565b9250506020610cd785828601610c52565b9150509250929050565b600060208284031215610cf357600080fd5b6000610d0184828501610c3d565b91505092915050565b600060208284031215610d1c57600080fd5b6000610d2a84828501610c52565b91505092915050565b60008060408385031215610d4657600080fd5b6000610d5485828601610c52565b9250506020610d6585828601610c28565b9150509250929050565b600060208284031215610d8157600080fd5b6000610d8f84828501610c67565b91505092915050565b60008060408385031215610dab57600080fd5b6000610db985828601610c67565b9250506020610dca85828601610c52565b9150509250929050565b610ddd8161111c565b82525050565b610dec8161113a565b82525050565b6000610dff602683611081565b91507f4f776e61626c653a206e6577206f776e657220697320746865207a65726f206160008301527f64647265737300000000000000000000000000000000000000000000000000006020830152604082019050919050565b6000610e65602083611081565b91507f4f776e61626c653a2063616c6c6572206973206e6f7420746865206f776e65726000830152602082019050919050565b6000610ea5601d83611081565b91507f4e6f7420656e6f756768206d6f6e657920746f2077697468647261772e0000006000830152602082019050919050565b6000610ee5601c83611081565b91507f546f6b656e20646f65736e277420657869737420696e20546f66752e000000006000830152602082019050919050565b610f2181611164565b82525050565b6000602082019050610f3c6000830184610dd4565b92915050565b6000606082019050610f576000830186610dd4565b610f646020830185610dd4565b610f716040830184610f18565b949350505050565b6000604082019050610f8e6000830185610dd4565b610f9b6020830184610f18565b9392505050565b6000602082019050610fb76000830184610de3565b92915050565b6000604082019050610fd26000830185610de3565b610fdf6020830184610dd4565b9392505050565b60006020820190508181036000830152610fff81610df2565b9050919050565b6000602082019050818103600083015261101f81610e58565b9050919050565b6000602082019050818103600083015261103f81610e98565b9050919050565b6000602082019050818103600083015261105f81610ed8565b9050919050565b600060208201905061107b6000830184610f18565b92915050565b600082825260208201905092915050565b600061109d82611164565b91506110a883611164565b9250827fffffffffffffffffffffffffffffffffffffffffffffffffffffffffffffffff038211156110dd576110dc61116e565b5b828201905092915050565b60006110f382611164565b91506110fe83611164565b9250828210156111115761111061116e565b5b828203905092915050565b600061112782611144565b9050919050565b60008115159050919050565b6000819050919050565b600073ffffffffffffffffffffffffffffffffffffffff82169050919050565b6000819050919050565b7f4e487b7100000000000000000000000000000000000000000000000000000000600052601160045260246000fd5b6111a68161111c565b81146111b157600080fd5b50565b6111bd8161112e565b81146111c857600080fd5b50565b6111d48161113a565b81146111df57600080fd5b50565b6111eb81611164565b81146111f657600080fd5b5056fea2646970667358221220f208f8dd5d7514a2215eff29985395ce9ef3b49bbe911b01f6464666fb36b9a864736f6c63430008000033",
  "immutableReferences": {},
  "source": "// SPDX-License-Identifier: MIT\n/**\n * @author Nes B.\n * @dev Wallet implementation for TofuDEX.\n */\n\npragma solidity ^0.8.0;\n\nimport \"../node_modules/@openzeppelin/contracts/token/ERC20/IERC20.sol/\";\nimport \"../node_modules/@openzeppelin/contracts/access/Ownable.sol/\";\n\ncontract Wallet is Ownable {\n\n    struct Token {\n        bytes32 ticker;\n        address tokenAddress;\n    }\n\n    bytes32[] public tokenList;\n\n    mapping (address => uint) public weiBalances;\n\n    mapping(bytes32 => Token) public tokenMapping;\n    mapping(address => mapping(bytes32 => uint256)) public balances;\n\n    modifier isToken(bytes32 _ticker) {\n        require(tokenMapping[_ticker].tokenAddress != address(0), \"Token doesn't exist in Tofu.\");\n        _;\n    }\n\n    function addToken(bytes32 _ticker, address _tokenAddress) external onlyOwner {\n        tokenMapping[_ticker] = Token(_ticker, _tokenAddress);\n        tokenList.push(_ticker);\n    }\n\n    function deposit(uint _amount, bytes32 _ticker) external isToken(_ticker) {\n        IERC20(tokenMapping[_ticker].tokenAddress).transferFrom(msg.sender, address(this), _amount);\n        balances[msg.sender][_ticker] += _amount;\n    }\n\n    function depositWei(uint _amount) public payable {\n        weiBalances[msg.sender] += _amount;\n    }\n\n    function withdraw(uint _amount, bytes32 _ticker) external isToken(_ticker) {\n        require(balances[msg.sender][_ticker] >= _amount, \"Not enough money to withdraw.\");\n        balances[msg.sender][_ticker] -= _amount;\n        IERC20(tokenMapping[_ticker].tokenAddress).transfer(msg.sender,_amount);\n    }\n}\n\n",
  "sourcePath": "/Users/solaris/Workspace/SolidityWS/TofuDEX/contracts/Wallet.sol",
  "compiler": {
    "name": "solc",
    "version": "0.8.0+commit.c7dfd78e.Emscripten.clang"
  },
  "schemaVersion": "3.3.4",
  "updatedAt": "2021-04-26T03:56:07.952Z",
  "devdoc": {
    "kind": "dev",
    "methods": {
      "owner()": {
        "details": "Returns the address of the current owner."
      },
      "renounceOwnership()": {
        "details": "Leaves the contract without owner. It will not be possible to call `onlyOwner` functions anymore. Can only be called by the current owner. NOTE: Renouncing ownership will leave the contract without an owner, thereby removing any functionality that is only available to the owner."
      },
      "transferOwnership(address)": {
        "details": "Transfers ownership of the contract to a new account (`newOwner`). Can only be called by the current owner."
      }
    },
    "version": 1
  },
  "userdoc": {
    "kind": "user",
    "methods": {},
    "version": 1
  }
}