{
  "contractName": "Wallet",
  "abi": [
    {
      "anonymous": false,
      "inputs": [
        {
          "indexed": true,
          "internalType": "address",
          "name": "previousOwner",
          "type": "address"
        },
        {
          "indexed": true,
          "internalType": "address",
          "name": "newOwner",
          "type": "address"
        }
      ],
      "name": "OwnershipTransferred",
      "type": "event"
    },
    {
      "inputs": [
        {
          "internalType": "address",
          "name": "",
          "type": "address"
        },
        {
          "internalType": "bytes32",
          "name": "",
          "type": "bytes32"
        }
      ],
      "name": "balances",
      "outputs": [
        {
          "internalType": "uint256",
          "name": "",
          "type": "uint256"
        }
      ],
      "stateMutability": "view",
      "type": "function",
      "constant": true
    },
    {
      "inputs": [],
      "name": "owner",
      "outputs": [
        {
          "internalType": "address",
          "name": "",
          "type": "address"
        }
      ],
      "stateMutability": "view",
      "type": "function",
      "constant": true
    },
    {
      "inputs": [],
      "name": "renounceOwnership",
      "outputs": [],
      "stateMutability": "nonpayable",
      "type": "function"
    },
    {
      "inputs": [
        {
          "internalType": "uint256",
          "name": "",
          "type": "uint256"
        }
      ],
      "name": "tokenList",
      "outputs": [
        {
          "internalType": "bytes32",
          "name": "",
          "type": "bytes32"
        }
      ],
      "stateMutability": "view",
      "type": "function",
      "constant": true
    },
    {
      "inputs": [
        {
          "internalType": "bytes32",
          "name": "",
          "type": "bytes32"
        }
      ],
      "name": "tokenMapping",
      "outputs": [
        {
          "internalType": "bytes32",
          "name": "ticker",
          "type": "bytes32"
        },
        {
          "internalType": "address",
          "name": "tokenAddress",
          "type": "address"
        }
      ],
      "stateMutability": "view",
      "type": "function",
      "constant": true
    },
    {
      "inputs": [
        {
          "internalType": "address",
          "name": "newOwner",
          "type": "address"
        }
      ],
      "name": "transferOwnership",
      "outputs": [],
      "stateMutability": "nonpayable",
      "type": "function"
    },
    {
      "inputs": [
        {
          "internalType": "bytes32",
          "name": "_ticker",
          "type": "bytes32"
        },
        {
          "internalType": "address",
          "name": "_tokenAddress",
          "type": "address"
        }
      ],
      "name": "addToken",
      "outputs": [],
      "stateMutability": "nonpayable",
      "type": "function"
    },
    {
      "inputs": [
        {
          "internalType": "uint256",
          "name": "_amount",
          "type": "uint256"
        },
        {
          "internalType": "bytes32",
          "name": "_ticker",
          "type": "bytes32"
        }
      ],
      "name": "deposit",
      "outputs": [],
      "stateMutability": "nonpayable",
      "type": "function"
    },
    {
      "inputs": [
        {
          "internalType": "uint256",
          "name": "_amount",
          "type": "uint256"
        },
        {
          "internalType": "bytes32",
          "name": "_ticker",
          "type": "bytes32"
        }
      ],
      "name": "withdraw",
      "outputs": [],
      "stateMutability": "nonpayable",
      "type": "function"
    }
  ],
  "bytecode": "0x608060405234801561001057600080fd5b5060006100216100c460201b60201c565b9050806000806101000a81548173ffffffffffffffffffffffffffffffffffffffff021916908373ffffffffffffffffffffffffffffffffffffffff1602179055508073ffffffffffffffffffffffffffffffffffffffff16600073ffffffffffffffffffffffffffffffffffffffff167f8be0079c531659141344cd1fd0a4f28419497f9722a3daafe3b4186f6b6457e060405160405180910390a3506100cc565b600033905090565b6110e7806100db6000396000f3fe608060405234801561001057600080fd5b50600436106100935760003560e01c80639776aacf116100665780639776aacf146101215780639ead72221461013d578063a8d2021a1461016d578063c9630cb014610189578063f2fde38b146101a557610093565b80631f14df6914610098578063667cb4ba146100c8578063715018a6146100f95780638da5cb5b14610103575b600080fd5b6100b260048036038101906100ad9190610b5d565b6101c1565b6040516100bf9190610f1e565b60405180910390f35b6100e260048036038101906100dd9190610bc2565b6101e6565b6040516100f0929190610e75565b60405180910390f35b61010161022a565b005b61010b610364565b6040516101189190610ddf565b60405180910390f35b61013b60048036038101906101369190610beb565b61038d565b005b61015760048036038101906101529190610c27565b6104c8565b6040516101649190610e5a565b60405180910390f35b61018760048036038101906101829190610c50565b6104ec565b005b6101a3600480360381019061019e9190610c50565b610756565b005b6101bf60048036038101906101ba9190610b34565b61092f565b005b6003602052816000526040600020602052806000526040600020600091509150505481565b60026020528060005260406000206000915090508060000154908060010160009054906101000a900473ffffffffffffffffffffffffffffffffffffffff16905082565b610232610ad8565b73ffffffffffffffffffffffffffffffffffffffff16610250610364565b73ffffffffffffffffffffffffffffffffffffffff16146102a6576040517f08c379a000000000000000000000000000000000000000000000000000000000815260040161029d90610ebe565b60405180910390fd5b600073ffffffffffffffffffffffffffffffffffffffff1660008054906101000a900473ffffffffffffffffffffffffffffffffffffffff1673ffffffffffffffffffffffffffffffffffffffff167f8be0079c531659141344cd1fd0a4f28419497f9722a3daafe3b4186f6b6457e060405160405180910390a360008060006101000a81548173ffffffffffffffffffffffffffffffffffffffff021916908373ffffffffffffffffffffffffffffffffffffffff160217905550565b60008060009054906101000a900473ffffffffffffffffffffffffffffffffffffffff16905090565b610395610ad8565b73ffffffffffffffffffffffffffffffffffffffff166103b3610364565b73ffffffffffffffffffffffffffffffffffffffff1614610409576040517f08c379a000000000000000000000000000000000000000000000000000000000815260040161040090610ebe565b60405180910390fd5b60405180604001604052808381526020018273ffffffffffffffffffffffffffffffffffffffff16815250600260008481526020019081526020016000206000820151816000015560208201518160010160006101000a81548173ffffffffffffffffffffffffffffffffffffffff021916908373ffffffffffffffffffffffffffffffffffffffff16021790555090505060018290806001815401808255809150506001900390600052602060002001600090919091909150555050565b600181815481106104d857600080fd5b906000526020600020016000915090505481565b80600073ffffffffffffffffffffffffffffffffffffffff166002600083815260200190815260200160002060010160009054906101000a900473ffffffffffffffffffffffffffffffffffffffff1673ffffffffffffffffffffffffffffffffffffffff161415610593576040517f08c379a000000000000000000000000000000000000000000000000000000000815260040161058a90610efe565b60405180910390fd5b82600360003373ffffffffffffffffffffffffffffffffffffffff1673ffffffffffffffffffffffffffffffffffffffff1681526020019081526020016000206000848152602001908152602001600020541015610626576040517f08c379a000000000000000000000000000000000000000000000000000000000815260040161061d90610ede565b60405180910390fd5b82600360003373ffffffffffffffffffffffffffffffffffffffff1673ffffffffffffffffffffffffffffffffffffffff168152602001908152602001600020600084815260200190815260200160002060008282546106869190610fa0565b925050819055506002600083815260200190815260200160002060010160009054906101000a900473ffffffffffffffffffffffffffffffffffffffff1673ffffffffffffffffffffffffffffffffffffffff1663a9059cbb33856040518363ffffffff1660e01b81526004016106fe929190610e31565b602060405180830381600087803b15801561071857600080fd5b505af115801561072c573d6000803e3d6000fd5b505050506040513d601f19601f820116820180604052508101906107509190610b99565b50505050565b80600073ffffffffffffffffffffffffffffffffffffffff166002600083815260200190815260200160002060010160009054906101000a900473ffffffffffffffffffffffffffffffffffffffff1673ffffffffffffffffffffffffffffffffffffffff1614156107fd576040517f08c379a00000000000000000000000000000000000000000000000000000000081526004016107f490610efe565b60405180910390fd5b6002600083815260200190815260200160002060010160009054906101000a900473ffffffffffffffffffffffffffffffffffffffff1673ffffffffffffffffffffffffffffffffffffffff166323b872dd3330866040518463ffffffff1660e01b815260040161087093929190610dfa565b602060405180830381600087803b15801561088a57600080fd5b505af115801561089e573d6000803e3d6000fd5b505050506040513d601f19601f820116820180604052508101906108c29190610b99565b5082600360003373ffffffffffffffffffffffffffffffffffffffff1673ffffffffffffffffffffffffffffffffffffffff168152602001908152602001600020600084815260200190815260200160002060008282546109239190610f4a565b92505081905550505050565b610937610ad8565b73ffffffffffffffffffffffffffffffffffffffff16610955610364565b73ffffffffffffffffffffffffffffffffffffffff16146109ab576040517f08c379a00000000000000000000000000000000000000000000000000000000081526004016109a290610ebe565b60405180910390fd5b600073ffffffffffffffffffffffffffffffffffffffff168173ffffffffffffffffffffffffffffffffffffffff161415610a1b576040517f08c379a0000000000000000000000000000000000000000000000000000000008152600401610a1290610e9e565b60405180910390fd5b8073ffffffffffffffffffffffffffffffffffffffff1660008054906101000a900473ffffffffffffffffffffffffffffffffffffffff1673ffffffffffffffffffffffffffffffffffffffff167f8be0079c531659141344cd1fd0a4f28419497f9722a3daafe3b4186f6b6457e060405160405180910390a3806000806101000a81548173ffffffffffffffffffffffffffffffffffffffff021916908373ffffffffffffffffffffffffffffffffffffffff16021790555050565b600033905090565b600081359050610aef81611055565b92915050565b600081519050610b048161106c565b92915050565b600081359050610b1981611083565b92915050565b600081359050610b2e8161109a565b92915050565b600060208284031215610b4657600080fd5b6000610b5484828501610ae0565b91505092915050565b60008060408385031215610b7057600080fd5b6000610b7e85828601610ae0565b9250506020610b8f85828601610b0a565b9150509250929050565b600060208284031215610bab57600080fd5b6000610bb984828501610af5565b91505092915050565b600060208284031215610bd457600080fd5b6000610be284828501610b0a565b91505092915050565b60008060408385031215610bfe57600080fd5b6000610c0c85828601610b0a565b9250506020610c1d85828601610ae0565b9150509250929050565b600060208284031215610c3957600080fd5b6000610c4784828501610b1f565b91505092915050565b60008060408385031215610c6357600080fd5b6000610c7185828601610b1f565b9250506020610c8285828601610b0a565b9150509250929050565b610c9581610fd4565b82525050565b610ca481610ff2565b82525050565b6000610cb7602683610f39565b91507f4f776e61626c653a206e6577206f776e657220697320746865207a65726f206160008301527f64647265737300000000000000000000000000000000000000000000000000006020830152604082019050919050565b6000610d1d602083610f39565b91507f4f776e61626c653a2063616c6c6572206973206e6f7420746865206f776e65726000830152602082019050919050565b6000610d5d601183610f39565b91507f4e6f7420656e6f756768206d6f6e65792e0000000000000000000000000000006000830152602082019050919050565b6000610d9d601c83610f39565b91507f546f6b656e20646f65736e277420657869737420696e20546f66752e000000006000830152602082019050919050565b610dd98161101c565b82525050565b6000602082019050610df46000830184610c8c565b92915050565b6000606082019050610e0f6000830186610c8c565b610e1c6020830185610c8c565b610e296040830184610dd0565b949350505050565b6000604082019050610e466000830185610c8c565b610e536020830184610dd0565b9392505050565b6000602082019050610e6f6000830184610c9b565b92915050565b6000604082019050610e8a6000830185610c9b565b610e976020830184610c8c565b9392505050565b60006020820190508181036000830152610eb781610caa565b9050919050565b60006020820190508181036000830152610ed781610d10565b9050919050565b60006020820190508181036000830152610ef781610d50565b9050919050565b60006020820190508181036000830152610f1781610d90565b9050919050565b6000602082019050610f336000830184610dd0565b92915050565b600082825260208201905092915050565b6000610f558261101c565b9150610f608361101c565b9250827fffffffffffffffffffffffffffffffffffffffffffffffffffffffffffffffff03821115610f9557610f94611026565b5b828201905092915050565b6000610fab8261101c565b9150610fb68361101c565b925082821015610fc957610fc8611026565b5b828203905092915050565b6000610fdf82610ffc565b9050919050565b60008115159050919050565b6000819050919050565b600073ffffffffffffffffffffffffffffffffffffffff82169050919050565b6000819050919050565b7f4e487b7100000000000000000000000000000000000000000000000000000000600052601160045260246000fd5b61105e81610fd4565b811461106957600080fd5b50565b61107581610fe6565b811461108057600080fd5b50565b61108c81610ff2565b811461109757600080fd5b50565b6110a38161101c565b81146110ae57600080fd5b5056fea264697066735822122095408d596adb6c27e37b46a50794c9303d00457fec998cb8c7ed52c289258ced64736f6c63430008000033",
  "immutableReferences": {},
  "source": "// SPDX-License-Identifier: MIT\n/**\n * @author Nes B.\n * @dev Wallet implementation for TofuDEX.\n */\n\npragma solidity ^0.8.0;\n\nimport \"../node_modules/@openzeppelin/contracts/token/ERC20/IERC20.sol/\";\nimport \"../node_modules/@openzeppelin/contracts/access/Ownable.sol/\";\n\ncontract Wallet is Ownable{\n\n    struct Token {\n        bytes32 ticker;\n        address tokenAddress;\n    }\n\n    bytes32[] public tokenList;\n\n    mapping(bytes32 => Token) public tokenMapping;\n    mapping(address => mapping(bytes32 => uint256)) public balances;\n\n    modifier isToken(bytes32 _ticker) {\n        require(tokenMapping[_ticker].tokenAddress != address(0), \"Token doesn't exist in Tofu.\");\n        _;\n    }\n\n    function addToken(bytes32 _ticker, address _tokenAddress) external onlyOwner {\n        tokenMapping[_ticker] = Token(_ticker, _tokenAddress);\n        tokenList.push(_ticker);\n    }\n\n    function deposit(uint _amount, bytes32 _ticker) external isToken(_ticker) {\n        IERC20(tokenMapping[_ticker].tokenAddress).transferFrom(msg.sender, address(this), _amount);\n        balances[msg.sender][_ticker] += _amount;\n    }\n\n    function withdraw(uint _amount, bytes32 _ticker) external isToken(_ticker) {\n        require(balances[msg.sender][_ticker] >= _amount, \"Not enough money.\");\n        balances[msg.sender][_ticker] -= _amount;\n        IERC20(tokenMapping[_ticker].tokenAddress).transfer(msg.sender,_amount);\n    }\n}\n\n",
  "sourcePath": "/Users/solaris/Workspace/SolidityWS/TofuDEX/contracts/Wallet.sol",
  "compiler": {
    "name": "solc",
    "version": "0.8.0+commit.c7dfd78e.Emscripten.clang"
  },
  "schemaVersion": "3.3.4",
  "updatedAt": "2021-04-23T06:40:33.294Z",
  "networkType": "ethereum",
  "devdoc": {
    "kind": "dev",
    "methods": {
      "owner()": {
        "details": "Returns the address of the current owner."
      },
      "renounceOwnership()": {
        "details": "Leaves the contract without owner. It will not be possible to call `onlyOwner` functions anymore. Can only be called by the current owner. NOTE: Renouncing ownership will leave the contract without an owner, thereby removing any functionality that is only available to the owner."
      },
      "transferOwnership(address)": {
        "details": "Transfers ownership of the contract to a new account (`newOwner`). Can only be called by the current owner."
      }
    },
    "version": 1
  },
  "userdoc": {
    "kind": "user",
    "methods": {},
    "version": 1
  }
}