{
  "contractName": "Wallet",
  "abi": [
    {
      "anonymous": false,
      "inputs": [
        {
          "indexed": true,
          "internalType": "address",
          "name": "previousOwner",
          "type": "address"
        },
        {
          "indexed": true,
          "internalType": "address",
          "name": "newOwner",
          "type": "address"
        }
      ],
      "name": "OwnershipTransferred",
      "type": "event"
    },
    {
      "inputs": [
        {
          "internalType": "address",
          "name": "",
          "type": "address"
        },
        {
          "internalType": "bytes32",
          "name": "",
          "type": "bytes32"
        }
      ],
      "name": "balances",
      "outputs": [
        {
          "internalType": "uint256",
          "name": "",
          "type": "uint256"
        }
      ],
      "stateMutability": "view",
      "type": "function"
    },
    {
      "inputs": [],
      "name": "owner",
      "outputs": [
        {
          "internalType": "address",
          "name": "",
          "type": "address"
        }
      ],
      "stateMutability": "view",
      "type": "function"
    },
    {
      "inputs": [],
      "name": "renounceOwnership",
      "outputs": [],
      "stateMutability": "nonpayable",
      "type": "function"
    },
    {
      "inputs": [
        {
          "internalType": "uint256",
          "name": "",
          "type": "uint256"
        }
      ],
      "name": "tokenList",
      "outputs": [
        {
          "internalType": "bytes32",
          "name": "",
          "type": "bytes32"
        }
      ],
      "stateMutability": "view",
      "type": "function"
    },
    {
      "inputs": [
        {
          "internalType": "bytes32",
          "name": "",
          "type": "bytes32"
        }
      ],
      "name": "tokenMapping",
      "outputs": [
        {
          "internalType": "bytes32",
          "name": "ticker",
          "type": "bytes32"
        },
        {
          "internalType": "address",
          "name": "tokenAddress",
          "type": "address"
        }
      ],
      "stateMutability": "view",
      "type": "function"
    },
    {
      "inputs": [
        {
          "internalType": "address",
          "name": "newOwner",
          "type": "address"
        }
      ],
      "name": "transferOwnership",
      "outputs": [],
      "stateMutability": "nonpayable",
      "type": "function"
    },
    {
      "inputs": [
        {
          "internalType": "address",
          "name": "",
          "type": "address"
        }
      ],
      "name": "weiBalances",
      "outputs": [
        {
          "internalType": "uint256",
          "name": "",
          "type": "uint256"
        }
      ],
      "stateMutability": "view",
      "type": "function"
    },
    {
      "inputs": [
        {
          "internalType": "bytes32",
          "name": "_ticker",
          "type": "bytes32"
        },
        {
          "internalType": "address",
          "name": "_tokenAddress",
          "type": "address"
        }
      ],
      "name": "addToken",
      "outputs": [],
      "stateMutability": "nonpayable",
      "type": "function"
    },
    {
      "inputs": [
        {
          "internalType": "uint256",
          "name": "_amount",
          "type": "uint256"
        },
        {
          "internalType": "bytes32",
          "name": "_ticker",
          "type": "bytes32"
        }
      ],
      "name": "deposit",
      "outputs": [],
      "stateMutability": "nonpayable",
      "type": "function"
    },
    {
      "inputs": [],
      "name": "depositWei",
      "outputs": [],
      "stateMutability": "payable",
      "type": "function"
    },
    {
      "inputs": [
        {
          "internalType": "uint256",
          "name": "_amount",
          "type": "uint256"
        },
        {
          "internalType": "bytes32",
          "name": "_ticker",
          "type": "bytes32"
        }
      ],
      "name": "withdraw",
      "outputs": [],
      "stateMutability": "nonpayable",
      "type": "function"
    }
  ],
  "bytecode": "0x608060405234801561001057600080fd5b5060006100216100c460201b60201c565b9050806000806101000a81548173ffffffffffffffffffffffffffffffffffffffff021916908373ffffffffffffffffffffffffffffffffffffffff1602179055508073ffffffffffffffffffffffffffffffffffffffff16600073ffffffffffffffffffffffffffffffffffffffff167f8be0079c531659141344cd1fd0a4f28419497f9722a3daafe3b4186f6b6457e060405160405180910390a3506100cc565b600033905090565b61121c806100db6000396000f3fe60806040526004361061009c5760003560e01c80638da5cb5b116100645780638da5cb5b1461017a5780639776aacf146101a55780639ead7222146101ce578063a8d2021a1461020b578063c9630cb014610234578063f2fde38b1461025d5761009c565b806315488b88146100a15780631f14df69146100ab578063667cb4ba146100e85780636ef9e14514610126578063715018a614610163575b600080fd5b6100a9610286565b005b3480156100b757600080fd5b506100d260048036038101906100cd9190610c92565b6102de565b6040516100df9190611053565b60405180910390f35b3480156100f457600080fd5b5061010f600480360381019061010a9190610cf7565b610303565b60405161011d929190610faa565b60405180910390f35b34801561013257600080fd5b5061014d60048036038101906101489190610c69565b610347565b60405161015a9190611053565b60405180910390f35b34801561016f57600080fd5b5061017861035f565b005b34801561018657600080fd5b5061018f610499565b60405161019c9190610f14565b60405180910390f35b3480156101b157600080fd5b506101cc60048036038101906101c79190610d20565b6104c2565b005b3480156101da57600080fd5b506101f560048036038101906101f09190610d5c565b6105fd565b6040516102029190610f8f565b60405180910390f35b34801561021757600080fd5b50610232600480360381019061022d9190610d85565b610621565b005b34801561024057600080fd5b5061025b60048036038101906102569190610d85565b61088b565b005b34801561026957600080fd5b50610284600480360381019061027f9190610c69565b610a64565b005b34600260003373ffffffffffffffffffffffffffffffffffffffff1673ffffffffffffffffffffffffffffffffffffffff16815260200190815260200160002060008282546102d5919061107f565b92505081905550565b6004602052816000526040600020602052806000526040600020600091509150505481565b60036020528060005260406000206000915090508060000154908060010160009054906101000a900473ffffffffffffffffffffffffffffffffffffffff16905082565b60026020528060005260406000206000915090505481565b610367610c0d565b73ffffffffffffffffffffffffffffffffffffffff16610385610499565b73ffffffffffffffffffffffffffffffffffffffff16146103db576040517f08c379a00000000000000000000000000000000000000000000000000000000081526004016103d290610ff3565b60405180910390fd5b600073ffffffffffffffffffffffffffffffffffffffff1660008054906101000a900473ffffffffffffffffffffffffffffffffffffffff1673ffffffffffffffffffffffffffffffffffffffff167f8be0079c531659141344cd1fd0a4f28419497f9722a3daafe3b4186f6b6457e060405160405180910390a360008060006101000a81548173ffffffffffffffffffffffffffffffffffffffff021916908373ffffffffffffffffffffffffffffffffffffffff160217905550565b60008060009054906101000a900473ffffffffffffffffffffffffffffffffffffffff16905090565b6104ca610c0d565b73ffffffffffffffffffffffffffffffffffffffff166104e8610499565b73ffffffffffffffffffffffffffffffffffffffff161461053e576040517f08c379a000000000000000000000000000000000000000000000000000000000815260040161053590610ff3565b60405180910390fd5b60405180604001604052808381526020018273ffffffffffffffffffffffffffffffffffffffff16815250600360008481526020019081526020016000206000820151816000015560208201518160010160006101000a81548173ffffffffffffffffffffffffffffffffffffffff021916908373ffffffffffffffffffffffffffffffffffffffff16021790555090505060018290806001815401808255809150506001900390600052602060002001600090919091909150555050565b6001818154811061060d57600080fd5b906000526020600020016000915090505481565b80600073ffffffffffffffffffffffffffffffffffffffff166003600083815260200190815260200160002060010160009054906101000a900473ffffffffffffffffffffffffffffffffffffffff1673ffffffffffffffffffffffffffffffffffffffff1614156106c8576040517f08c379a00000000000000000000000000000000000000000000000000000000081526004016106bf90611033565b60405180910390fd5b82600460003373ffffffffffffffffffffffffffffffffffffffff1673ffffffffffffffffffffffffffffffffffffffff168152602001908152602001600020600084815260200190815260200160002054101561075b576040517f08c379a000000000000000000000000000000000000000000000000000000000815260040161075290611013565b60405180910390fd5b82600460003373ffffffffffffffffffffffffffffffffffffffff1673ffffffffffffffffffffffffffffffffffffffff168152602001908152602001600020600084815260200190815260200160002060008282546107bb91906110d5565b925050819055506003600083815260200190815260200160002060010160009054906101000a900473ffffffffffffffffffffffffffffffffffffffff1673ffffffffffffffffffffffffffffffffffffffff1663a9059cbb33856040518363ffffffff1660e01b8152600401610833929190610f66565b602060405180830381600087803b15801561084d57600080fd5b505af1158015610861573d6000803e3d6000fd5b505050506040513d601f19601f820116820180604052508101906108859190610cce565b50505050565b80600073ffffffffffffffffffffffffffffffffffffffff166003600083815260200190815260200160002060010160009054906101000a900473ffffffffffffffffffffffffffffffffffffffff1673ffffffffffffffffffffffffffffffffffffffff161415610932576040517f08c379a000000000000000000000000000000000000000000000000000000000815260040161092990611033565b60405180910390fd5b6003600083815260200190815260200160002060010160009054906101000a900473ffffffffffffffffffffffffffffffffffffffff1673ffffffffffffffffffffffffffffffffffffffff166323b872dd3330866040518463ffffffff1660e01b81526004016109a593929190610f2f565b602060405180830381600087803b1580156109bf57600080fd5b505af11580156109d3573d6000803e3d6000fd5b505050506040513d601f19601f820116820180604052508101906109f79190610cce565b5082600460003373ffffffffffffffffffffffffffffffffffffffff1673ffffffffffffffffffffffffffffffffffffffff16815260200190815260200160002060008481526020019081526020016000206000828254610a58919061107f565b92505081905550505050565b610a6c610c0d565b73ffffffffffffffffffffffffffffffffffffffff16610a8a610499565b73ffffffffffffffffffffffffffffffffffffffff1614610ae0576040517f08c379a0000000000000000000000000000000000000000000000000000000008152600401610ad790610ff3565b60405180910390fd5b600073ffffffffffffffffffffffffffffffffffffffff168173ffffffffffffffffffffffffffffffffffffffff161415610b50576040517f08c379a0000000000000000000000000000000000000000000000000000000008152600401610b4790610fd3565b60405180910390fd5b8073ffffffffffffffffffffffffffffffffffffffff1660008054906101000a900473ffffffffffffffffffffffffffffffffffffffff1673ffffffffffffffffffffffffffffffffffffffff167f8be0079c531659141344cd1fd0a4f28419497f9722a3daafe3b4186f6b6457e060405160405180910390a3806000806101000a81548173ffffffffffffffffffffffffffffffffffffffff021916908373ffffffffffffffffffffffffffffffffffffffff16021790555050565b600033905090565b600081359050610c248161118a565b92915050565b600081519050610c39816111a1565b92915050565b600081359050610c4e816111b8565b92915050565b600081359050610c63816111cf565b92915050565b600060208284031215610c7b57600080fd5b6000610c8984828501610c15565b91505092915050565b60008060408385031215610ca557600080fd5b6000610cb385828601610c15565b9250506020610cc485828601610c3f565b9150509250929050565b600060208284031215610ce057600080fd5b6000610cee84828501610c2a565b91505092915050565b600060208284031215610d0957600080fd5b6000610d1784828501610c3f565b91505092915050565b60008060408385031215610d3357600080fd5b6000610d4185828601610c3f565b9250506020610d5285828601610c15565b9150509250929050565b600060208284031215610d6e57600080fd5b6000610d7c84828501610c54565b91505092915050565b60008060408385031215610d9857600080fd5b6000610da685828601610c54565b9250506020610db785828601610c3f565b9150509250929050565b610dca81611109565b82525050565b610dd981611127565b82525050565b6000610dec60268361106e565b91507f4f776e61626c653a206e6577206f776e657220697320746865207a65726f206160008301527f64647265737300000000000000000000000000000000000000000000000000006020830152604082019050919050565b6000610e5260208361106e565b91507f4f776e61626c653a2063616c6c6572206973206e6f7420746865206f776e65726000830152602082019050919050565b6000610e92601d8361106e565b91507f4e6f7420656e6f756768206d6f6e657920746f2077697468647261772e0000006000830152602082019050919050565b6000610ed2601c8361106e565b91507f546f6b656e20646f65736e277420657869737420696e20546f66752e000000006000830152602082019050919050565b610f0e81611151565b82525050565b6000602082019050610f296000830184610dc1565b92915050565b6000606082019050610f446000830186610dc1565b610f516020830185610dc1565b610f5e6040830184610f05565b949350505050565b6000604082019050610f7b6000830185610dc1565b610f886020830184610f05565b9392505050565b6000602082019050610fa46000830184610dd0565b92915050565b6000604082019050610fbf6000830185610dd0565b610fcc6020830184610dc1565b9392505050565b60006020820190508181036000830152610fec81610ddf565b9050919050565b6000602082019050818103600083015261100c81610e45565b9050919050565b6000602082019050818103600083015261102c81610e85565b9050919050565b6000602082019050818103600083015261104c81610ec5565b9050919050565b60006020820190506110686000830184610f05565b92915050565b600082825260208201905092915050565b600061108a82611151565b915061109583611151565b9250827fffffffffffffffffffffffffffffffffffffffffffffffffffffffffffffffff038211156110ca576110c961115b565b5b828201905092915050565b60006110e082611151565b91506110eb83611151565b9250828210156110fe576110fd61115b565b5b828203905092915050565b600061111482611131565b9050919050565b60008115159050919050565b6000819050919050565b600073ffffffffffffffffffffffffffffffffffffffff82169050919050565b6000819050919050565b7f4e487b7100000000000000000000000000000000000000000000000000000000600052601160045260246000fd5b61119381611109565b811461119e57600080fd5b50565b6111aa8161111b565b81146111b557600080fd5b50565b6111c181611127565b81146111cc57600080fd5b50565b6111d881611151565b81146111e357600080fd5b5056fea26469706673582212201b15c7afe17804677e73b3e2cae57edd096f80238859727996b03453f18ce29964736f6c63430008000033",
  "immutableReferences": {},
  "source": "// SPDX-License-Identifier: MIT\n/**\n * @author Nes B.\n * @dev Wallet implementation for TofuDEX.\n */\n\npragma solidity ^0.8.0;\n\nimport \"../node_modules/@openzeppelin/contracts/token/ERC20/IERC20.sol/\";\nimport \"../node_modules/@openzeppelin/contracts/access/Ownable.sol/\";\n\ncontract Wallet is Ownable {\n\n    struct Token {\n        bytes32 ticker;\n        address tokenAddress;\n    }\n\n    bytes32[] public tokenList;\n\n    mapping (address => uint) public weiBalances;\n\n    mapping(bytes32 => Token) public tokenMapping;\n    mapping(address => mapping(bytes32 => uint256)) public balances;\n\n    modifier isToken(bytes32 _ticker) {\n        require(tokenMapping[_ticker].tokenAddress != address(0), \"Token doesn't exist in Tofu.\");\n        _;\n    }\n\n    function addToken(bytes32 _ticker, address _tokenAddress) external onlyOwner {\n        tokenMapping[_ticker] = Token(_ticker, _tokenAddress);\n        tokenList.push(_ticker);\n    }\n\n    function deposit(uint _amount, bytes32 _ticker) external isToken(_ticker) {\n        IERC20(tokenMapping[_ticker].tokenAddress).transferFrom(msg.sender, address(this), _amount);\n        balances[msg.sender][_ticker] += _amount;\n    }\n\n    function depositWei() public payable {\n        weiBalances[msg.sender] += msg.value;\n    }\n\n    function withdraw(uint _amount, bytes32 _ticker) external isToken(_ticker) {\n        require(balances[msg.sender][_ticker] >= _amount, \"Not enough money to withdraw.\");\n        balances[msg.sender][_ticker] -= _amount;\n        IERC20(tokenMapping[_ticker].tokenAddress).transfer(msg.sender,_amount);\n    }\n}\n\n",
  "sourcePath": "/Users/solaris/Workspace/SolidityWS/TofuDEX/contracts/Wallet.sol",
  "compiler": {
    "name": "solc",
    "version": "0.8.0+commit.c7dfd78e.Emscripten.clang"
  },
  "schemaVersion": "3.3.4",
  "updatedAt": "2021-04-26T08:45:05.830Z",
  "devdoc": {
    "kind": "dev",
    "methods": {
      "owner()": {
        "details": "Returns the address of the current owner."
      },
      "renounceOwnership()": {
        "details": "Leaves the contract without owner. It will not be possible to call `onlyOwner` functions anymore. Can only be called by the current owner. NOTE: Renouncing ownership will leave the contract without an owner, thereby removing any functionality that is only available to the owner."
      },
      "transferOwnership(address)": {
        "details": "Transfers ownership of the contract to a new account (`newOwner`). Can only be called by the current owner."
      }
    },
    "version": 1
  },
  "userdoc": {
    "kind": "user",
    "methods": {},
    "version": 1
  }
}